:100000000C94B0180C94E1180C94E1180C94E118BD
:100010000C94E1180C94E1180C94E1180C94E1187C
:100020000C94E1180C94E1180C94E1180C94E1186C
:100030000C94E1180C94E1180C94E1180C94E1185C
:100040000C94E1180C947F460C94E1180C94E11880
:100050000C94E1180C94E1180C949DB20C944DA1F1
:100060000C94E1180C940F370C9405370C94E1189C
:100070000C94E1180C94E1180C94E1180C94E1181C
:100080000C94E1180C94E1180C94E1180C94E1180C
:100090000C94E1180C94E1180C94E1180C94E118FC
:1000A0000C94E1180C94E1180C94E1180C94E118EC
:1000B0000C94E1180C94E1180C94E1180C94E118DC
:1000C0000C94E1180C94E1180C94E1180C94E118CC
:1000D0000C94E1180C94E1180C94E1180C94E118BC
:1000E0000C94E118095A145A275A325A455A505A50
:1000F000635A17601B601E601960216024603060C5
:100100003F60D463DF63F263FD6310641B642E649D
:1001100039646A64776485649264A064AD64BD6484
:10012000E2641E651E651E651E651E651E651E65F4
:100130001E651E651E650F6512651565186553659C
:1001400062657B658A65A365B265CB65DA650B661A
:100150000E662C66136616661D66206623662C6680
:1001600026669770B9709A70B9709D70A070A37070
:10017000B970A670A970B970B070B970B970B37069
:10018000C6A9D1A9E4A9EFA902AA0DAA20AA2BAA5F
:1001900009AE0CAEFBADFFAD05AE43AE10AE14AE76
:1001A0001AAE1EAE22AE28AE2CAE30AE43AE36AE88
:1001B0003AAE3EAEC3B1C8B1CDB1D7B1E1B15AB2DA
:1001C000EBB1F3B1FBB105B20FB219B228B232B242
:1001D0005AB23CB246B250B218C11BC11BC11BC1BE
:1001E0004AC14AC12FC135C14AC13FC13FC14AC1FD
:1001F0004AC14AC146C1084AD73B3BCE016E84BCC6
:10020000BFFDC12F3D6C74319ABD56833DDA3D0070
:10021000C77F11BED9E4BB4C3E916BAAAABE0000B9
:1002200000803F05A84CCDB2D44EB93836A9020C97
:1002300050B9918688083CA6AAAA2ABE0000008070
:100240003F08000000BE922449123EABAAAA2ABE73
:10025000CDCCCC4C3E00000080BEABAAAAAA3E008A
:10026000000000BF000000803F00000000000841C7
:1002700078D3BB4387D1133D190E3CC3BD4282AD39
:100280002B3E68EC8276BED98FE1A93E4C80EFFF11
:10029000BE01C4FF7F3F0000000000000C942C66EC
:1002A0000C94635A0C942F650C94E43F0C944A68A8
:1002B0000C94C4A00C94A09C0C945FA00C94626558
:1002C0000C941BC10C9405400C9446B20C9425650B
:1002D0000C948C570C94D7B10C941AAE0C943743F1
:1002E0000C9420660C942FC10C9443AE0C94039F85
:1002F0000C94539E0C942BAA0C94419C0C940A6071
:100300000C94CEAD0C9450B20C943CAD0C940E41B8
:100310000C941EAE0C9485640C9422AE0C945AB2CC
:100320000C9435C10C949A700C9413510C9436AE05
:100330000C941B5D0C9412650C94EFA90C94A070A6
:100340000C94A3700C94A5510C946E5A0C94D090FC
:100350000C94AB9E0C94429B0C94B3700C943FABEA
:100360000C94C3B10C943F600C94D9C00C942243FC
:100370000C943AAE0C9497700C9439370C941C99E9
:100380000C94303F0C9432B20C942E640C94246084
:100390000C94459C0C947F960C940B660C94489C92
:1003A0000C94BD640C946B520C9446C10C94C370B5
:1003B0000C9492640C9417600C94BE420C94069CAE
:1003C0000C94D1A90C94CDB10C9439640C942D6388
:1003D0000C942C430C94C4980C9410640C94499C79
:1003E0000C94FFAD0C94E4A90C94FBAD0C9420AAE2
:1003F0000C94AB3F0C94B8670C94505A0C946F5704
:100400000C946D980C94609A0C9405720C94AF5DEA
:100410000C94B2A90C943CB20C940CAE0C94F3B1B5
:100420000C9408A00C94DA650C9412510C943EAE16
:100430000C9402AA0C94A0640C944EC10C940F6509
:100440000C9418C10C9453650C9485540C941E6044
:100450000C944AC10C94E95A0C9419600C94B07035
:100460000C946C9A0C94C0630C94F5590C94CB6565
:100470000C948A600C94FC9D0C947B650C94BB706E
:100480000C94FBB10C942E660C94FCA00C94B6A0BA
:100490000C9471570C94313F0C94C6A90C9473744E
:1004A0000C94A9700C9446AA0C94095A0C94E1B1CE
:1004B0000C94925A0C94C79A0C9418650C94EBB156
:1004C0000C94FA900C94325A0C94E0420C941698C6
:1004D0000C9499570C94835A0C940BB80C946A5151
:1004E0000C946A640C9468610C940FB20C94B19FE4
:1004F0000C9415650C945A9F0C94B1A90C943B650F
:100500000C9414AE0C940E660C9477640C94B26543
:100510000C94BB510C9405AE0C9430AE0C949D70B1
:100520000C94A3650C94E1C00C947E590C9409AE14
:100530000C941D660C94BF630C943F590C943FC1FE
:100540000C94FF650C948B700C94BDA00C948A6580
:100550000C94F89A0C94F79C0C9482570C94D463E6
:100560000C9405B20C948D5D0C94D8A00C94265E6E
:100570000C94A6700C9408C10C94DF630C9410AE1C
:100580000C9451910C94AC5B0C94275A0C94FD6321
:100590000C9426660C94705A0C940DAA0C94E26488
:1005A0000C94B05D0C9407570C9416660C94C8B16B
:1005B0000C9430600C949DC00C9423660C9419B27A
:1005C0000C94F2630C94B89B0C94BB5D0C94136672
:1005D0000C94DE5B0C946EAA0C9428B20C941B60F5
:1005E0000C94A59D0C9452640C94479C0C94145A42
:1005F0000C94AD640C942CAE0C94B9700C94439C88
:100600000C94D1900C9428AE0C9449550C941B6416
:100610000C94A85C0C945F5C0C944E9D0C94455A11
:100620000C9421600C9441590C941E654E414E4926
:100630004E495459494E46CDCCCC3D0AD7233C17A0
:10064000B7D13877CC2B329595E6241FB14F0A00ED
:100650000020410000C84200401C4620BCBE4CCADD
:100660001B0E5AAEC59D7400407A10F35A00A0725A
:100670004E18090010A5D4E80000E87648170000DD
:10068000E40B54020000CA9A3B000000E1F50500AB
:100690000080969800000040420F000000A08601F4
:1006A000000000102700000000E8030000000064C4
:1006B00000000000000A000000000001000000002F
:1006C000002C76D888DC674F0823DFC1DFAE59E104
:1006D000B1B796E5E3E453C63AE651997696E8E673
:1006E000C28426EB898C9B62ED407C6FFCEFBC9C46
:1006F0009F40F2BAA56FA5F490055A2AF75C936B58
:100700006CF9676DC11BFCE0E40D47FEF520E6B512
:1007100000D0ED902E0300943577050080841E08EC
:100720000000204E0A000000C80C333333330F980A
:100730006E12831141EF8D2114893BE65516CFFED1
:10074000E6DB18D1844B381BF77C1D901DA4BBE45D
:1007500024203284725E228100C9F124ECA1E53D9F
:1007600027434F4D4D554E49434154494F4E004448
:10077000525952554E004552524F525300494E461F
:100780004F004543484F0048656174696E672E2EDF
:100790002E006F6B00454550524F4D2064697361C8
:1007A000626C65640A00486F6D65202573257325AA
:1007B00073204669727374004F66667365747320A4
:1007C0004170706C696564004572723A20546F6FB5
:1007D000206661722100546F6F206661722066721C
:1007E0006F6D207265666572656E636520706F69F6
:1007F0006E740A006469730043290A0061626C65C3
:100800006420286D696E2074656D702000436F6CE4
:100810006420657874727564657320617265200068
:1008200020643A0020693A0020703A00496E7661EF
:100830006C69642065787472756465720A0020467C
:100840006C6F773A200046523A0020204D61783A8A
:10085000200020204D696E3A2000536F6674206599
:100860006E6473746F70733A20003F4A206F757422
:10087000206F662072616E67652028302E3031202F
:10088000746F20302E33290A00205400205200417A
:100890006363656C65726174696F6E3A2050002FF6
:1008A0002F20004348414D4245525F54454D50452D
:1008B00052415455524500424142595354455050BB
:1008C000494E470041524353004D4F54494F4E5FEC
:1008D0004D4F44455300544845524D414C5F505292
:1008E0004F54454354494F4E004C4F4E475F464985
:1008F0004C454E414D45004155544F5245504F5285
:10090000545F53445F53544154555300534443413F
:1009100052440050524F4D50545F535550504F5217
:100920005400454D455247454E43595F504152533F
:10093000455200434153455F4C494748545F42523A
:10094000494748544E45535300544F47474C455F21
:100950004C494748545300534F4654574152455F02
:10096000504F574552004255494C445F5045524301
:10097000454E54004C4556454C494E475F44415402
:1009800041005A5F50524F42450052554E4F555408
:10099000004155544F4C4556454C005052494E5419
:1009A0005F4A4F420050524F475245535300415502
:1009B000544F5245504F52545F54454D5000564F7E
:1009C0004C554D455452494300454550524F4D00FA
:1009D00042494E4152595F46494C455F5452414E3F
:1009E000534645520053455249414C5F584F4E5F64
:1009F000584F4646004649524D574152455F4E4179
:100A00004D453A4D61726C696E2062756766697812
:100A10002D322E302E782028536570203236203229
:100A20003032302031353A33383A30312920534F83
:100A3000555243455F434F44455F55524C3A6874A5
:100A40007470733A2F2F6769746875622E636F6DC7
:100A50002F4D61726C696E4669726D776172652F98
:100A60004D61726C696E2050524F544F434F4C5F32
:100A700056455253494F4E3A312E30204D4143484E
:100A8000494E455F545950453A3344205072696E7F
:100A90007465722045585452554445525F434F5532
:100AA0004E543A3120555549443A63656465326184
:100AB00032662D343161322D343734382D3962317C
:100AC000322D6335356336326633363766660A0053
:100AD0003344205072696E746572204F46462E0072
:100AE0004D3131332053004D31313220536875740C
:100AF000646F776E006F66660044454255473A0062
:100B000020573A00436F6F6C696E672E2E2E00508F
:100B1000726F7465637465642050696E0A00496E73
:100B200076616C69642050696E204D6F64650A00BF
:100B300025697920256964202569682025696D204B
:100B4000256973005072696E742074696D653A206E
:100B5000004E6F204D6F76652E00436C69636B20ED
:100B6000746F20526573756D652E2E2E00536C6563
:100B700065702E2E2E0047322F473320626164208D
:100B8000706172616D65746572730A00FFFFFF002A
:100B9000000000000000000000000082077D0776D2
:100BA000076F0761070000484200004842000080CC
:100BB000403637263F3C3D380E2B303A0C1A1C1875
:100BC00005FF422C2D2E084500014D343130004DDB
:100BD000313132004D3130380053544F505045447C
:100BE0002E20005072696E7465722073746F70707D
:100BF00065642064756520746F206572726F72730E
:100C00002E2046697820746865206572726F7220A4
:100C1000616E6420757365204D39393920746F20F9
:100C2000726573746172742E202854656D706572DC
:100C300061747572652069732072657365742E2006
:100C400053657420697420616674657220726573DF
:100C500074617274696E67290A004E6F204368657B
:100C6000636B73756D2077697468206C696E65209D
:100C70006E756D6265722C204C617374204C696EC8
:100C8000653A2000636865636B73756D206D6973E9
:100C90006D617463682C204C617374204C696E65BF
:100CA0003A20004C696E65204E756D626572206950
:100CB00073206E6F74204C617374204C696E6520D4
:100CC0004E756D6265722B312C204C617374204C13
:100CD000696E653A20004D313130002121204B49A9
:100CE0004C4C20636175736564206279204B494CDC
:100CF0004C20627574746F6E2F70696E0A0021212A
:100D0000204B494C4C2063617573656420627920E7
:100D1000746F6F206D75636820696E6163746976A6
:100D2000652074696D65202D2063757272656E741F
:100D300020636F6D6D616E643A2000627573793A5D
:100D40002070617573656420666F7220696E7075BE
:100D5000740A00627573793A207061757365642056
:100D6000666F7220757365720A00627573793A2036
:100D700070726F63657373696E670A00506C6561AA
:100D80007365205265736574005052494E54455244
:100D90002048414C5445440025533A202553004BEC
:100DA000494C4C45442E20005072696E7465722087
:100DB00068616C7465642E206B696C6C28292063F3
:100DC000616C6C6564210A006563686F3A00457266
:100DD000726F723A00436F6E74696E756F7573004F
:100DE0004D6F6D656E74617279004C6F61642F4553
:100DF0007874727564657200556E6C6F61642F5201
:100E000065747261637400486F7421004361757486
:100E1000696F6E3A0052656D6F76616C2054656D36
:100E2000700043757272656E742054656D70004574
:100E3000787472756465722053656C656374696F4C
:100E40006E004F6B617900F3AD6C549D416F54059A
:100E50003D15564239925AB7363661C8355069C881
:100E600035B096B736CA9E42396EA5053DEBA99DB1
:100E70004191AB60BE91ABF8C2EBA9BBC66EA54673
:100E8000C9CA9E35CAB09632CA6C54F3AD6C54FFD1
:100E9000FF9D4113598CB0135994C7508294C7B029
:100EA00096DAC6FF9CE1C429A2F4C1A5A560BEEDF7
:100EB000A69D41EDA6093EA5A51C3B29A22339FF0D
:100EC0009C6938B09669385069233901631C3BD757
:100ED0005D093E5B5A9D411359FFFF7AAC20867A2B
:100EE000AC739367A7739367A7CB75C6A1CB75C681
:100EF000A17393C6A18E9C67A78E9C7AAC8E9C1C16
:100F0000B28E9C1CB273931CB2E78550B393805F82
:100F1000B6867ED5B9658183BAE78583BA8E9CFE95
:100F2000BE8E9C24C0E19924C020867BBF227F8F87
:100F3000BDA9797EBA17765FB6D0744FB2227630EB
:100F4000AFC6792FAD437F7AAC20867AAC20867A03
:100F5000AC2086FFFF79818E9CE97C8E9C47778E42
:100F60009C4777EC9247774989A275A381A6717354
:100F70007EAB6D8B81056CFC88AF6D1990C771ECF1
:100F8000920575EC9205758E9C18718E9CD36C063B
:100F90009B6B69D69629679E905866FC882D6733AF
:100FA000818069C77A136D6C76A671D07432766DC4
:100FB00076C279D17A147C5381E97C4989E97CEC49
:100FC000927981EC92798120862E82437F2E84C68D
:100FD000794E8722765E8BD0747C8F17768E92A99D
:100FE000797994227F239520862395DB87818FDB77
:100FF00087818FE785D48E65815E8B867E4F88934F
:10100000801A87E7851A87EC921A878F9C79818FDF
:101010009C79818E9C79818E9CFFFF1565DB794CD4
:101020006481721862866CB25E8268565A0A67D909
:1010300055E0687252D06D0B4FE0688E4A0A6738EF
:10104000468268D542866CA2408172D93FDB79D94D
:101050003FC99AE4408E9C6F458E9C6F45B579D40C
:10106000465D738E4AC0703E4E5D73A14FB579A147
:101070004F8E9C4D558E9C4D55B579A7565D735638
:101080005AC0700C5E5D73745FB579745F8E9C1589
:10109000658E9C1565DB791565DB791565DB79FF58
:1010A000FF72964C8C14977993F598D2980B9CF418
:1010B0009B4CA07B9C4CA073932B9D0C921E9C4C34
:1010C0008C1E9C8E6472968E6472964C8C72964CBA
:1010D0008C72964C8CFFFF67A7947167A7026C9285
:1010E000A67A6896A40A6791A27A68BBA1026CBB33
:1010F000A1947167A7947167A7947167A794719D74
:10110000416F54053D15564239925AB7363661C87B
:10111000355069C835B096B736CA9E42396EA505B6
:101120003DEBA99D4191AB60BE91ABF8C2EBA9BB71
:10113000C66EA546C9CA9E35CAB09632CA6C549DC1
:10114000416F5400004843000048430000484300FA
:10115000009643000096430000A0400000C84100F4
:1011600000A0420000A04200007A450000FA43B807
:101170000B0000B80B0000640000001027000024E2
:10118000F4D43050C38E20C2A24017828B7011124B
:101190007A910D816CD90AA861E108C75866076188
:1011A0005143061E4B5D05C145A7041A41110409B0
:1011B0003D9803713931034036DB0265339102D427
:1011C000305402802E1D02632CEE01752AC501B039
:1011D00028A001102781018F2564012B244B01E0F9
:1011E000223401AC211F018D200D01801FFC0084E1
:1011F0001EED00971DDF00B81CD200E61BC60020C4
:101200001BBC00641AB200B219A8000A19A0006A37
:10121000189900D117910040178B00B51684003142
:10122000167E00B31579003A157300C7146F005885
:10123000146A00EE1366008813630025135E00C76E
:10124000125B006C12570015125400C1115100704E
:10125000114F0021114B00D61049008D1047004658
:1012600010440002104200C00F4000800F3E0042B8
:101270000F3C00060F3B00CB0E3800930E37005C8E
:101280000E3500270E3400F30D3200C10D310090F1
:101290000D3000600D2E00320D2D00050D2C00D9F3
:1012A0000C2B00AE0C2900850C29005C0C270035A6
:1012B0000C27000E0C2600E80B2400C40B2400A011
:1012C0000B23007D0B23005A0B2100390B21001842
:1012D0000B2000F80A1F00D90A1E00BB0A1E009D41
:1012E0000A1D00800A1D00630A1C00470A1B002C0F
:1012F0000A1B00110A1A00F7091A00DD091900C4B7
:10130000091900AB091900920917007B091800633D
:101310000917004C09160036091600200916000AA4
:10132000091500F5081500E0081400CC081400B8F1
:10133000081400A4081400900813007D0812006B24
:101340000813005808120046081200340811002340
:101350000811001208110001081100F0071000E048
:10136000071000D0071000C0071000B0070F00A141
:1013700007100091070E0083070F0074070F006528
:10138000070E0057070E0049070E003B070D002E01
:10139000070E0020070D0013070D0006070D00F9CA
:1013A000060C00ED060D00E0060C00D4060C00C88B
:1013B000060C00BC060C00B0060C00A4060B00993D
:1013C000060C008D060B0082060B0077060B006CE6
:1013D000060B0061060A0057060B004C060A004285
:1013E000060A0038060A002E060A0024060A001A19
:1013F000060A001006090007060A00FD050900F4A8
:10140000050900EB050900E2050900D9050900D02E
:10141000050900C7050900BE050900B5050800ADAE
:10142000050800A50509009C050800940508008C26
:10143000050800840508007C050800740508006C98
:10144000050700650508005D050700560508004E04
:10145000050700470507004005080038050700316B
:101460000507002A050700230507001C05060016CE
:101470000507000F0507000805060002050700FB29
:10148000040600F5040700EE040600E8040600E286
:10149000040700DB040600D5040600CF040600C9DB
:1014A000040600C3040600BD040600B7040600B12C
:1014B000040500AC040600A6040600A00405009B79
:1014C00004060095040500900406008A04050085C2
:1014D000040500800406007A040500750405007008
:1014E0000405006B04050066040500610405005C4A
:1014F00004050057040500520405004D040500488A
:10150000040500430405003E0404003A04050035C8
:10151000040500300404002C040500270404002303
:101520000405001E0404001A04040016040500113A
:101530000404000D04040009040500040404000070
:10154000040400FC030400F8030400F4030400F0A6
:10155000030400EC030400E8030400E4030400E0D7
:10156000030400DC030400D8030400D4030400D007
:10157000030400CC030400C8030300C503030024D4
:10158000F404D9201BC40C5C0E9804C4095F0265E6
:10159000077101F405F900FB04B30048048700C19A
:1015A0000369005803550003034500BE023A008456
:1015B00002310053022A002902250004022000E41F
:1015C000011C00C8011900AF011700980114008424
:1015D000011300710110006101100051010E004360
:1015E000010D0036010B002B010B0020010B001533
:1015F0000109000C01090003010800FB000800F3C9
:10160000000800EB000700E4000600DE000600D83A
:10161000000600D2000600CC000500C7000500C28D
:10162000000500BD000400B9000400B5000400B1CD
:10163000000400AD000400A9000400A5000300A2FE
:101640000003009F0004009B000300980003009526
:1016500000020093000300900003008D0002008B45
:10166000000300880002008600020084000300815D
:101670000002007F0002007D0002007B0002007972
:101680000002007700010076000200740002007280
:10169000000100710002006F0002006D0001006C8B
:1016A0000002006A00010069000200670001006694
:1016B0000001006500010064000200620001006199
:1016C000000100600001005F0002005D0001005C9D
:1016D0000001005B0001005A0001005900010058A0
:1016E00000010057000100560001005500010054A0
:1016F000000100530000005300010052000100519E
:10170000000100500001004F0001004E0000004E9B
:101710000001004D0001004C0001004B0000004B97
:101720000001004A00010049000100480000004893
:10173000000100470001004600000046000100458E
:101740000000004500010044000100430000004388
:101750000001004200000042000100410000004181
:10176000000100400001003F0000003F0001003E7A
:101770000000003E0001003D0000003D0001003C73
:101780000000003C0000003C0001003B0000003B6A
:101790000001003A0000003A000100390000003961
:1017A0000001003800000038000000380001003758
:1017B000000000370001003600000036000000364F
:1017C0000001003500000035000000350001003444
:1017D000000000340000003400010033000000333A
:1017E000000000330001003200000032000000322F
:1017F0000001003100000031000000310001003024
:1018000000000030000000300001002F0000002F19
:101810000000002F0000002F0001002E0000002E0D
:101820000000002E0001002D0000002D0000002D02
:101830000000002D0001002C0000002C0000002CF6
:101840000000002C0001002B0000002B0000002BEA
:101850000000002B0001002A0000002A0000002ADE
:101860000000002A000100290000002900000029D2
:1018700000000029000000290001002800000028C5
:1018800000000028000000280000002800010027B8
:1018900000000027000000270000002700000027AC
:1018A000000100260000002600000026000000269F
:1018B0000000002600010025000000250000002592
:1018C0000000002500000025000000250001002484
:1018D0000000002400000024000000240000002478
:1018E000000100230000002300000023000000236B
:1018F000000000230000002300000023000100225C
:10190000000000220000002200000022000000224F
:101910000000002200010021000000210000002141
:101920000000002100000021000000210000002133
:101930000001002000000020000000200000002026
:101940000000002000000020000000200000002017
:101950000001001F0000001F0000001F0000001F0A
:101960000000001F0000001F0000001F0001001EFB
:101970000000001E0000001E0000001E0000000409
:101980003700001E290000511B00005810000010F5
:10199000090000CC0400007802000041010000486A
:1019A000617264636F6465642044656661756C741C
:1019B0002053657474696E6773204C6F616465644D
:1019C0000A003B200020490020204D3330312050B8
:1019D000005049442073657474696E67733A00203F
:1019E000204D323036205800486F6D65206F666696
:1019F0007365743A00204A0020204D323035204271
:101A000000416476616E6365643A20423C6D696EA4
:101A10005F7365676D656E745F74696D655F75731F
:101A20003E20533C6D696E5F6665656472617465E6
:101A30003E20543C6D696E5F74726176656C5F66C2
:101A4000656564726174653E204A3C6A756E635FC9
:101A50006465763E0020204D3230342050004163D2
:101A600063656C65726174696F6E2028756E697448
:101A7000732F7332293A20503C7072696E745F6123
:101A80006363656C3E20523C726574726163745F7F
:101A9000616363656C3E20543C74726176656C5F73
:101AA000616363656C3E0020204D32303120580068
:101AB0004D6178696D756D20416363656C65726118
:101AC00074696F6E2028756E6974732F7332293AAA
:101AD0000020204D3230332058004D6178696D75FB
:101AE0006D206665656472617465732028756E6922
:101AF00074732F73293A0053746570732070657284
:101B000020756E69743A0020440020204D32303038
:101B10002053002044697361626C65640A00466961
:101B20006C616D656E742073657474696E67733A69
:101B30000020286D6D2900202047323120202020F0
:101B40003B20556E69747320696E206D6D00496E7F
:101B50007465726661636500594553004E4F0050CD
:101B600072696E74207374617274696E6700536F6A
:101B7000756E647300426F6F742073637265656E77
:101B80000053637265656E206C6F636B00536F75F5
:101B90006E6420766F6C756D65005072696E74208E
:101BA0006572726F72005072696E742066696E6938
:101BB0007368656400436C69636B20736F756E6452
:101BC00073004445020044430200444523000000E2
:101BD0000C00444304004441040044400400443EDB
:101BE0000400443D1000443E200000002A00443917
:101BF0000200443702004439230000000900443445
:101C00000800443508004431100044321B00000035
:101C10002A00442D0200442B0200442D2300000022
:101C20000C00442B040044290400442804004426EA
:101C300004004425100044262000000034004431F4
:101C400009004434090044370900443A0900443D7E
:101C5000090044400900443E140000001E00443DB9
:101C60000400443E020044400200443D0200443E61
:101C7000020044400200443D0200443E0200444051
:101C80000200443D0200443E04004440040044413C
:101C90000200444302004440020044410200444325
:101CA0000200444002004441020044430200444018
:101CB00002004441040044430400444502004446F9
:101CC00002004443020044450200444602004443EB
:101CD00002004445020044460200444302004445D9
:101CE00004000000240044490400444A0200444C1B
:101CF000020044490200444A0200444C02004449A4
:101D00000200444A0200444C020044490200444A92
:101D10000400444C0400444D0200444F0200444C73
:101D20000200444D0200444F0200444C0200444D66
:101D30000200444F0200444C0200444D0400444F52
:101D400004004451020044520200444F0200445136
:101D5000020044520200444F020044510200445227
:101D60000200444F0200445104000000200044518E
:101D70000400444F020044520200444C0200444F0D
:101D8000020044520200444C0200444D02004451FF
:101D90000200444A0200444D0200444F0200444AFB
:101DA0000200444C02004451020044480200444CEA
:101DB00002004451020044480200444A0200444DDB
:101DC000020044460200444A0200444C02004446D9
:101DD000020044480200444C020000FF0000463765
:101DE000040046390400463B0400463E0300000060
:101DF0000100463C030000000100463C0400464050
:101E0000030000000100463E020000000200463EC2
:101E1000040046430300000001004642040046431C
:101E20000400463E020000000200463B03000000A2
:101E30000100463704004639020000000200463B1C
:101E4000020000000200463C0400463E0200000082
:101E500002004640020000000200463E0400463CEC
:101E6000020000000200463B02000000020046396A
:101E70000400463B0200000002004637020000005A
:101E800002004637080000FF000000000800533C35
:101E90000800553C0800543C0800523C0800000073
:101EA0000800533C0800553C0800543C0800523CD4
:101EB000080000000800533C0800553C0800543C52
:101EC0000800523C080000FF0000083C400000FFF2
:101ED0000000073C400000FF0000063C400000FFFF
:101EE0000000053C400000FF000041410300414369
:101EF000030041410300413E0300413A030000005A
:101F00000300454103004543030045410300453EAE
:101F10000300453A030000000300422E0600422E53
:101F20000600422E0400422E0600422E060000FF4C
:101F300000004737050047400500473C050000FF0B
:101F4000000045390400000001004539020000008E
:101F50000100453902000000010045400A0000FF71
:101F60000000DA024821E2023821EA02321FF102BF
:101F7000421FF902CA270603EA1E0F03E21E1703D7
:101F8000DA1E1D03D21E2403CA1E2D038A1E33032C
:101F9000DE1D3C03C21B446973706C6179004172A1
:101FA0006520796F75207375726520796F7520775C
:101FB000616E7420746F2063616E63656C20746859
:101FC00065207072696E743F005072696E742041B2
:101FD000626F727465640053746172742070726908
:101FE0006E74696E672025733F00536574204D61E0
:101FF00078696D756D0052657472616374696F6E96
:102000000054726176656C005072696E74696E6717
:102010000043616C69627261746500546F75636836
:102020002053637265656E0056204F666673657453
:102030000048204F666673657400536F66742045D0
:102040006E6473746F7073007A5F70726F62650094
:1020500052756E6F757420320052756E6F757420F4
:1020600031007A5F6D617800795F6D617800785F2B
:102070006D6178004261636B0043617365204C6958
:10208000676874005072696E7420537065656400EF
:1020900050726F6265205A204F6666736574004304
:1020A00068616E67652046696C616D656E74005489
:1020B000656D70657261747572650069646C650048
:1020C0002043002533642553202F202553004661EB
:1020D0006E20537065656400436F6F6C646F776E3C
:1020E0000052656C6561736520746F206265676975
:1020F0006E2073637265656E2063616C69627261E4
:1021000074696F6E00546F7563682074686520642D
:102110006F747320746F2063616C6962726174659F
:102120000053746F70205072696E74005061757343
:1021300065205072696E7400433C01004340010009
:102140004343100000FF000000FF0000416363658F
:102150006C65726174696F6E006D6D2F735E320015
:1021600056656C6F63697479004D6F7665204178B0
:102170006973004D38340047323800416D61782072
:102180004500416D6178205A00416D617820590009
:10219000416D6178205800566D6178204500566D7C
:1021A0006178205A00566D6178205900566D61782B
:1021B0002058006D6D2F7300416C6C004732382041
:1021C0005A00473238205900473238205800204DF5
:1021D000393220580020496E76616C696420657838
:1021E00074727564657220004361703A00526573C1
:1021F000656E643A2000504944204175746F7475CF
:102200006E65206661696C656421204261642065A9
:1022100078747275646572206E756D6265720A00FD
:1022200023646566696E652044454641554C545F9C
:10223000005049442074756E696E6720646F6E6546
:10224000004175746F74756E65206661696C6564B4
:10225000212054696D656F75742E004175746F741B
:10226000756E65206661696C65642E2054656D70BD
:102270006572617475726520746F6F206869676834
:102280002E004175746F74756E65206661696C65AA
:10229000642E204261642065787472756465722EC4
:1022A000004B6420004B6920004B702000504944D3
:1022B000204175746F74756E652066696E69736808
:1022C0006564212050757420746865206C61737496
:1022D000204B702C204B6920616E64204B6420637E
:1022E0006F6E7374616E74732066726F6D206265B9
:1022F0006C6F7720696E746F20436F6E66696775C7
:10230000726174696F6E2E680A00504944204175ED
:10231000746F74756E65206661696C6564212074E4
:10232000696D656F75740A000A20436C6173736987
:102330006320504944200A00204B643A2000204B7F
:10234000693A2000204B703A20002054753A200052
:10235000204B753A2000206D61783A2000206D698D
:102360006E3A200020643A200020626961733A20AE
:1023700000504944204175746F74756E6520737404
:102380006172740A00504944204175746F74756E0F
:1023900065206661696C6564212054656D706572A5
:1023A000617475726520746F6F20686967680A00D0
:1023B000504944204175746F74756E65004D6172AB
:1023C0006C696E206275676669782D322E302E78C2
:1023D000005072696E746572205374617473005496
:1023E0006869732070726F6772616D20697320660F
:1023F00072656520736F6674776172653A20796FD4
:10240000752063616E2072656469737472696275A8
:10241000746520697420616E642F6F72206D6F6423
:1024200069667920697420756E64657220746865C8
:10243000207465726D73206F662074686520474E46
:10244000552047656E6572616C205075626C6963DA
:10245000204C6963656E7365206173207075626CD2
:1024600069736865642062792074686520467265C6
:102470006520536F66747761726520466F756E6470
:102480006174696F6E2C2065697468657220766569
:102490007273696F6E2033206F6620746865204CFC
:1024A0006963656E73652C206F72202861742079D2
:1024B0006F7572206F7074696F6E2920616E79205C
:1024C0006C617465722076657273696F6E2E0A0A8C
:1024D000546F2076696577206120636F7079206F73
:1024E000662074686520474E552047656E657261A9
:1024F0006C205075626C6963204C6963656E73650E
:102500002C20676F20746F2074686520666F6C6C78
:102510006F77696E67206C6F636174696F6E3A20C4
:1025200068747470733A2F2F7777772E676E752ED5
:102530006F72672F6C6963656E7365732E00436FEE
:102540006C6F7220546F7563682050616E656C000B
:1025500068747470733A2F2F6D61726C696E667750
:102560002E6F7267004261636B6C61736800526525
:1025700073746F72652044656661756C7473005482
:102580006F6F6C204F6666736574730053656E736E
:102590006F726C65737320486F6D696E670044726B
:1025A000697665722043757272656E740020746F6F
:1025B0006F206C6F6E6720657874727573696F6ECB
:1025C0002070726576656E7465640A0020636F6CB6
:1025D0006420657874727573696F6E2070726576A9
:1025E000656E7465640A00DB0FC93F45BCDA3F8F36
:1025F000B30240FCF0274056946140FE4B9B408460
:10260000A5D840E0231841346A5641E859974164FF
:10261000DBD5416E271742B4B75542CE1A9742C850
:10262000AED542B5885A43D40684BFA65FA7BF740F
:1026300043E0BF10B11AC01C2C58C0E8F697C0B8D0
:1026400049D6C04E4E17C124D355C1802497C1A08E
:10265000B5D5C1121A17C244AE55C2781797C26CCD
:10266000ACD5C267885AC37A5F6D696E00795F6DB9
:10267000696E00785F6D696E006F70656E00545210
:1026800049474745524544005265706F7274696E00
:102690006720656E6473746F7020737461747573F2
:1026A0000A00486F6D696E67204661696C65640059
:1026B0005761726E696E673A20486F6D696E672068
:1026C00042756D702044697669736F72203C2031C9
:1026D0000A000202040000A0400000A04000000028
:1026E00040506C6561736520776169742E2E2E00F1
:1026F000253364202F202533642553004A756E63EB
:1027000074696F6E2044657600456E746572205062
:10271000617373636F64653A0053656C656374201D
:1027200050617373636F64653A0050617373636FD4
:102730006465206163636570746564210057726F1E
:102740006E672070617373636F646521007A7863CC
:1027500076626E6D213F3C006173646667686A6BE8
:102760006C200071776572747975696F7000313211
:1027700033343536373839300041626F7574205044
:1027800072696E746572004C6576656C696E67007F
:10279000416476616E6365642053657474696E6725
:1027A000730044697361626C652053746570706571
:1027B000727300436C65616E204E6F7A7A6C6500AF
:1027C0004175746F20486F6D6500453A0A004539C0
:1027D0000A0045380A004537140000FF0000417226
:1027E0006520796F7520737572653F20437573742A
:1027F0006F6D697A6174696F6E732077696C6C2094
:102800006265206C6F73742E0053657474696E6713
:102810007320726573746F72656420746F206465D1
:102820006661756C74004D35303200446F20796FED
:1028300075207769736820746F20736176652074E2
:10284000686573652073657474696E67732061735E
:102850002064656661756C74733F005365747469B8
:102860006E677320736176656421004D35303000EA
:10287000202F0020403A002020506C616E6E65725F
:1028800042756666657242797465733A2000204627
:10289000726565204D656D6F72793A2000436F6DEA
:1028A00070696C65643A205365702032362032308E
:1028B00032300A00204C6173742055706461746575
:1028C000643A20323032302D30392D3234207C20A1
:1028D000417574686F723A20286E6F6E652C2064A3
:1028E000656661756C7420636F6E666967290A009E
:1028F0006275676669782D322E302E780A004D6138
:10290000726C696E0020536F667477617265205235
:10291000657365740A00205761746368646F67208B
:1029200052657365740A002042726F776E206F756E
:10293000742052657365740A002045787465726E60
:10294000616C2052657365740A00506F776572552B
:10295000700A00656E6473746F7073206869743AEE
:10296000200070012C0190012701B0012201C0015B
:102970001D01F00118011002130130020E01600266
:10298000090190020401C002FF000003FA004003A5
:10299000F5008003F000D003EB002004E600700493
:1029A000E100E004DC004005D700C005D20040068D
:1029B000CD00D006C8008007C3003008BE00F00874
:1029C000B900C009B400B00AAF00B00BAA00D00C27
:1029D000A500000EA000500F9B00C01096005012E2
:1029E000910000148C00C0158700B0178200B01948
:1029F0007D00D01B7800001E730040206E009022E6
:102A00006900F024640040275F0090295A00E02B01
:102A10005500102E500020304B0010324600E0339D
:102A2000410090353C001037370070383200A03933
:102A30002D00B03A2800A03B2300603C1E00103D52
:102A40001900903D1400103E0F00703E0A00C03E79
:102A50000500003F0000403FFBFF803FF6FFC03F06
:102A6000F1FF2B002D00496E6372656D656E740079
:102A700031303000302E31002E3031002E303031E8
:102A800000252D3364202525004361636865645368
:102A9000637265656E3A3A73746F72654261636B17
:102AA00067726F756E642829206661696C65643A87
:102AB000206E6F7420656E6F75676820444C2063CC
:102AC000616368652073706163650A0053746570A3
:102AD000732F6D6D002025303264203A202530326E
:102AE00064004D656E75004D656469610047465828
:102AF000204D454D2046554C4C0073742F6D6D0094
:102B0000FFFFFFFFFFFFFFFFF800001FF003F80FBC
:102B1000E007F007C00FE003C01FE003C01FE003A1
:102B2000C00FE003C007E003C003C003D00000C330
:102B3000D803C1E3DFC7E3F3DFEFF7FBDFEFF7FB1A
:102B4000DFEFF7FBDFEFF7FBCFC7E3FBC783C01B6C
:102B5000C300000BC003C003C007E003C007F003BD
:102B6000C007F803C007F803C007F003E00FE00751
:102B7000F01FC00FF800001FFFFFFFFFFFFFFFFF68
:102B8000018181800181818000C0C0C000C0C0C0BF
:102B9000006060600060606000C0C0C000C0C0C075
:102BA000018181800181818003030300030303000D
:102BB00006060600060606000303030003030300DF
:102BC000018181800181818000000000FFFFFFFF03
:102BD000FFFFFFFFC0000003FFFFFFFF3FFFFC7F81
:102BE000FFFEC00003C00003C00003C000037FFF5E
:102BF000FE3FFFFC3FFFFC7FFFFEC00003C0000361
:102C0000C00003C000037FFFFE7FFFFE07FFE0035D
:102C1000FFC001818000C300006600003C00003C52
:102C200000007FFFFFFFFC00007FFFFFFFFF0000B1
:102C3000600000000380006000000000C0FFE000B2
:102C4000000000C0FFE000000000C0C06000000005
:102C500000C0C06000000000C0C06000000000C0F4
:102C6000C06000000000C0C06000000000C0C06084
:102C700000000000C0C06000000000C0C060000094
:102C80000000C0FFE000000000C0FFE00000000006
:102C9000C0006000000000C0006000000003800071
:102CA0007FFFFFFFFF00007FFFFFFFFC0000002110
:102CB00000240027002A002D00300033000101000D
:102CC00000040107010A0100002200250028002B52
:102CD000002E003100340002010000050108010B44
:102CE00001000020002300260029002C002F0032C4
:102CF00000000100000301060109010505050507A3
:102D00000508080808020202020A0A080804040466
:102D10000401010101010101010303030303030392
:102D200003040707070C0C0C0C0C0C0C0C02020221
:102D30000206060606060606060B0B0B0B0B0B0B14
:102D40000B07070A0A0A0A0A0A050505040404080B
:102D500008010210202008081020401020408002A6
:102D600001020108040201010204081020408080D1
:102D70004020100804020180040201804020100855
:102D8000040201080402010102040810204080012D
:102D9000020408102040801008040880102040041D
:102DA0004080102040048000000A0B02090C0D0E28
:102DB00008070304010000000000000000000000FC
:102DC0000000000000000000000000000000000003
:102DD00000000012111000000000000000000000C0
:102DE00000000000000000000000000000000000E3
:102DF00000000000000000000000000000446F6EB2
:102E00006520706C6179696E6720766964656F0A08
:102E10000020436F756E7420583A0045310062659A
:102E200064002C2073797374656D2073746F7070F7
:102E3000656421204865617465725F49443A2000E9
:102E4000544845524D414C2052554E41574159002E
:102E5000546865726D616C2052756E61776179009E
:102E600048656174696E67204661696C65640048F5
:102E7000656174696E67206661696C656400202D08
:102E800020496E76616C696420657874727564653A
:102E900072206E756D62657220210A004572723A69
:102EA000204D415854454D50004D415854454D50CA
:102EB00020747269676765726564004572723A20B2
:102EC0004D494E54454D50004D494E54454D5020AE
:102ED0007472696767657265640054696D656F75C2
:102EE00074206F6E20444C5F43616368653A3A57C3
:102EF0006169745F556E74696C5F49646C652829FB
:102F00000A003344205072696E7465722052656104
:102F100064792E005072696E74696E672E2E2E00D1
:102F20005072696E74205061757365640045202588
:102F30005300220A00556E6B6E6F776E20636F6DC3
:102F40006D616E643A20220020453A00205A3A0012
:102F500020593A00479C2243489C0E414159AB3FBF
:102F6000419C459C439C479C265E489CB05DAF5D60
:102F7000BB5D419C459C439CB1A96EAA489CCEADCB
:102F800008A03FAB419C459C46AA479C2243489CD5
:102F9000BE42B19F7F96419C459CFF65479C224362
:102FA000489CBE425A9F6861419C459C0A60479C70
:102FB0002243489CBE42039F0572419C459C8B70F6
:102FC000479C3743489C6F57AB9E0540419C459CAE
:102FD0008257479C3743489C6F57AB9E6E5A419C23
:102FE000459C8C57479C2243489C6F574159BDA034
:102FF000419C459CD8A0479C2243489C6F5741590F
:10300000B6A0419C459CC4A0479C2243489C6F5756
:103010004159AC5B419C459C705A479C2243489C5B
:103020006F574159DE5B419C459C835A479C224324
:10303000489CD190539ED090419C459C8257479C80
:10304000C370489CBE4241597374419C459CBB70FF
:10305000479C2565489CFCA05FA02E66419C52645D
:10306000E43F479C2C43489CBE42FC9D3CAD419CA8
:10307000B2A9E43F479C2C43489CBE42A59D5F5C9F
:10308000419CBB51E43F479C2C43489CBE424E9D13
:10309000B867419CC063E43F479C2C43489CBE42B8
:1030A000F79C4A68419C3B65E43F479C2C43489C05
:1030B000BE42A09C1B5D419CF559E43F479C2C43BC
:1030C000489CBE42499CB89B419C6C9AE43F479CFB
:1030D0002C43489CBE4251912D63419C8A60E43F41
:1030E000479C313F303FE1C0925A3937D9C09DC02B
:1030F00008C11251A551489C075713514955855491
:10310000459C6A51479CF89A489C069C6D986B5266
:10311000429B459CC79A479C609A489CBE42169821
:103120001C99419C459CC498479C3F59E95A8D5D28
:1031300041599957419C459C7157479C2F65489C24
:10314000BE424159BF63419C459C439C479C2C43D4
:10315000489CBE42FA90A85C419C7E59E43F4EC117
:1031600011241FBECFEFD1E2DEBFCDBF00E00CBF08
:1031700013E0A0E0B2E0E2E7FBEA01E00BBF02C02F
:1031800007900D92AE34B107D9F72DE0AEE4B3E06D
:1031900001C01D92A934B207E1F718E1C0EBD8E1F4
:1031A00000E006C021970109802FFE010E94FAD19C
:1031B000CF3AD10780E00807A9F70E94B7C10C9465
:1031C000B7D50C9400002F923F924F925F926F926E
:1031D0007F928F929F92AF92BF92CF92DF92EF92A7
:1031E000FF920F931F93CF93DF93CDB7DEB7C055F8
:1031F000D1090FB6F894DEBF0FBECDBF2091A60354
:103200002F962FAF2F9721E02093A6038091A5033F
:103210008D3409F46DC2843511F40C94B6268734CC
:1032200011F00C94DB262090A3033090A40334E02B
:103230002316310409F495C154F437FC55C280912A
:10324000A10352E0251631040CF0FFC02FC08AE51F
:103250002816310409F4D3C164F4A5E12A16310417
:1032600011F40C94DD26BCE12B16310409F4B7C12E
:103270003BC2EBE52E16310409F4C5C1FCE52F165F
:10328000310409F031C24AE4242E42E0342E5EE7D4
:10329000E52E53E0F52EA7E2BDE0BB8FAA8F67E3D2
:1032A000C62E6DE0D62E00E010E0EEC1813011F0A8
:1032B0000C94DD260E94FC6A81E993E00E94C88D8F
:1032C0008091630A83FD85C02091330D3091340DC8
:1032D0004091350D5091360D60919D0370919E0384
:1032E00080919F039091A0030E9437CB882309F41B
:1032F00070C08091B90581111BC06091BE057091AD
:10330000BF058091C0059091C1050E9488D320918E
:103310002F0230913002215031096217730744F4B3
:103320000E9460308CEC95E20E943A3011E001C0BE
:1033300010E02091330D3091340D4091350D5091B6
:10334000360D60919D0370919E0380919F03909133
:10335000A0030E941BD26B017C0120E030E0A90198
:103360000E947CD487FF04C0F7FAF094F7F8F09439
:1033700020912B0230912C0240912D0250912E026F
:10338000C701B6010E949DCB20E030E048E453E441
:103390000E947CD418163CF40E9460308DEA95E2BD
:1033A0000E943A3002C01123A1F080919D039091B8
:1033B0009E03A0919F03B091A0038093330D90933F
:1033C000340DA093350DB093360D8DE993E00E9436
:1033D000E18A2AE037ED43E25CE3609123027091D9
:1033E000240280912502909126020E949DCB6B01C0
:1033F0007C016091210270912202072E000C880B43
:10340000990B0E943ECB9B01AC01C701B6010E9403
:103410009DCB69837A838B839C838E010F5F1F4FC3
:103420002DE933E049E953E065E973E081E993E090
:103430000E940E8780E1E1E9F3E0A7E2BDE00190A0
:103440000D928A95E1F70C94DD26813011F00C94F1
:10345000DD260E94FC6A82E50E94482F882309F439
:103460004EC00E94C82E6B017C0120E030E0A90113
:103470000E9437CB882311F40C94B1272091270D9B
:103480003091280D4091290D50912A0D2A8F3B8FA4
:103490004C8F5D8F80912B0D90912C0DA0912D0D57
:1034A000B0912E0D8E8F9F8FA8A3B9A3809091030A
:1034B00090909203A0909303B09094034090950352
:1034C000509096036090970370909803A501940123
:1034D0006A8D7B8D8C8D9D8D0E9437CB81110C94D4
:1034E000F226A30192016E8D7F8D88A199A10E9481
:1034F00037CB882311F40C94B1270C94F22689E47D
:103500000E94482F882329F00E94C82E6B017C015D
:1035100003C0C12CD12C76018AE40E94482F882355
:1035200011F40C94B8270E94C82E6AA37BA38CA325
:103530009DA320E030E0A901C701B6010E9437CB6E
:1035400081110C94C52720E030E0A9016AA17BA17C
:103550008CA19DA10E9437CB81110C94C5270C949E
:10356000B12780E50E94482F882329F00E94FC6B38
:103570006B017C0103C0C12CD12C760183E50E9434
:10358000482F882361F00E94C82E20E030E04AE7EF
:1035900054E40E949DCB0E948FD36B017C010E945A
:1035A00006888091E20C811105C060E08DE69BE009
:1035B0000E94CB5F0E9441A1C60ED71EE81EF91ED5
:1035C0000E9441A1DC01CB018C199D09AE09BF0904
:1035D000B7FD02C00C94DD260E94D132F1CF80915C
:1035E0008C038770873011F00C94652B60E08FE4BA
:1035F0000E94596C81110C94DD260C94652B10925D
:10360000A2030C94DD268FE08093A2030C94DD26A8
:103610000E94C82E2B013C01133049F0D6012D9198
:103620003D914D915C910E941BD22B013C01EA8D92
:10363000FB8D2081318142815381C301B2010E94FF
:103640001BD24B015C012DEB37E346E855EB0E94A2
:103650007CD487FD21C02DEB37E346E855E3C50157
:10366000B4010E9437CB1816BCF01F5FF4E0EF0ED8
:10367000F11C2A8D3B8D2C5F3F4F3B8F2A8F34E00E
:10368000C30ED11C143031F1F10181911F010E9450
:10369000482F882351F3BCCF133051F44092330D9F
:1036A0005092340D6092350D7092360D01E0DDCFF1
:1036B000A5019401D7016D917D918D919C910E94FE
:1036C0001CD2F7016083718382839383812F0E94D0
:1036D000A88DCBCF002321F083E39DE00E94E18AF7
:1036E0000E948C8F0C94DD260E94B9BF0C94DD26BD
:1036F0008091A3039091A4038537910509F4F5C641
:103700000CF0F9C08535910509F43BC6E4F58B341E
:10371000910509F4D6C2BCF48131910509F4F6C1D2
:103720002CF4029708F491C10C94B3268F319105C3
:1037300009F400C28A32910509F4AAC2429711F035
:103740000C94B326E8C58135910509F4C5C56CF420
:103750008C34910509F4B9C28D34910511F00C94A3
:10376000B3260E94B5900C94DD268335910509F4AB
:10377000CBC50CF0D0C58091A2038F7D8061809372
:10378000A2030C94DD268D36910509F4D8C2B4F459
:103790008936910509F4A0C454F48C35910509F4D7
:1037A00013C68836910509F4A5C20C94B3268B364E
:1037B000910509F4CEC40CF4A5C431C58037910538
:1037C00009F432C554F48E36910509F4CEC48F360F
:1037D000910509F4DBC40C94B3268237910509F4F2
:1037E0007DC60CF42CC58337910511F00C94B326DB
:1037F00085EF99E00E943A3060E085EE99E00E9402
:10380000E26A60E080ED99E00E94E26A60E089ECA3
:1038100099E00E94E26A61E08EEB99E00E94E26A20
:1038200061E08EEA99E00E94E26A60E085EA99E050
:103830000E94E26A61E08BE999E00E94E26A60E03E
:1038400081E999E00E94E26A60E08AE899E00E94DA
:10385000E26A60E082E899E00E94E26A60E084E760
:1038600099E00E94E26A60E086E699E00E94E26ADE
:1038700060E087E599E00E94E26A60E089E499E00F
:103880000E94E26A60E083E399E00E94E26A60E0FD
:1038900082E299E00E94E26A60E083E199E00E949E
:1038A000E26A60E08CE099E00E94E26A60E087EF03
:1038B00098E00E94E26A60E089EE98E00E94E26A85
:1038C00061E086ED98E00E94E26A60E089EC98E0B1
:1038D0000E94E26A61E084EC98E00E94E26A60E0A3
:1038E00087EB98E00E94E26A60E083EA98E00E9439
:1038F000E26A0C94DD268D3D910511F40C94A4240C
:103900000CF04EC0893C910509F48BC63CF5883714
:10391000910509F438C66CF48637910509F4F9C5A8
:103920008737910511F00C94B3260E9415900C94E2
:10393000DD268B39910509F4A9C4883C910509F469
:1039400029C68937910511F00C94B32610928B0388
:1039500010928A030E9431900C94DD268D3C9105D3
:1039600009F4D8C654F48B3C910509F480C68C3C0C
:10397000910509F49BC60C94B326833D910509F487
:10398000F6C68C3D910509F4B8C78E3C910511F03F
:103990000C94B32653E5E52E53E0F52E10E0D5C682
:1039A0008A3941E0940709F447C42CF58D32A1E02F
:1039B0009A0711F40C94642564F4823E910511F485
:1039C0000C94FA248C32914011F40C9445250C94FB
:1039D000B3268F32F1E09F0711F40C94272614F4DC
:1039E0000C94E3258039914011F00C94B3260E9489
:1039F00006880C94DD26853F41E0940711F40C9471
:103A000093269CF48C3AA1E09A0711F40C942A2690
:103A1000843F914011F00C94B3260E945C3085E9FC
:103A200097E00E943A300C94DD26873FE1E09E0744
:103A300011F40C949C2614F40C949926873E934020
:103A400011F40C94A5260C94B32680E50E94482F0F
:103A5000882329F00E94FC6B6B017C0103C0C12C00
:103A6000D12C760183E50E94482F882361F00E94C3
:103A7000C82E20E030E04AE754E40E949DCB0E942B
:103A80008FD36B017C010E94068880917C0390910A
:103A90007D03009719F00E94F55B0AC06AE57BE0A0
:103AA000CE0101960E947ECACE0101960E94F55B6E
:103AB0001091A60383E08093A60381E080937B03AB
:103AC000C114D104E104F10431F00E9441A1C60EF9
:103AD000D71EE81EF91E80917B03882311F40C94F5
:103AE000932CC114D104E104F10411F40C948F2C33
:103AF0000E9441A1DC01CB018C199D09AE09BF09CF
:103B0000B7FF02C00C948F2C0C94932C80917703F8
:103B100084FF02C00C94982C8091790387FF02C027
:103B20000C94982C80917A03837011F00C94982C4B
:103B30000C94AF2C0E943C907B018C0120E831E575
:103B400041E050E00E9477D1C9016DE671E00E942A
:103B5000D2D14B015C01C801B70120E13EE040E059
:103B600050E00E9477D1CA01B90128E130E040E07D
:103B700050E00E9477D1762E672EC62ED72E3CE3DA
:103B8000232E312C412C512CC801B701A2019101E7
:103B90000E9477D1F62EE72ECA01B901A201910148
:103BA0000E9477D1CB018E010F5F1F4F81149104CA
:103BB00099F0EF92FF927F936F936F927F92BF92F3
:103BC000AF929F928F9280E39BE09F938F931F937E
:103BD0000F930E94CFCA13C0A114B104B1F0EF92A9
:103BE000FF927F936F936F927F92BF92AF9284E325
:103BF0009BE09F938F931F930F930E94CFCA0FB6A2
:103C0000F894DEBF0FBECDBF30C0CD2879F0EF9263
:103C1000FF927F936F936F927F9288E39BE09F93D5
:103C20008F931F930F930E94CFCAE9CF892B69F01E
:103C3000EF92FF927F936F938CE39BE09F938F9320
:103C40001F930F930E94CFCADACFEF92FF9280E4C6
:103C50009BE09F938F931F930F930E94CFCA0F9067
:103C60000F900F900F900F900F908091220D811167
:103C700003C0C8010E94A95F0E946030B80184E4BB
:103C80009BE00E9449308AE00E9433300C94DD268C
:103C90006DE070E080E50E94AE6B8C0197FF02C082
:103CA0000C94DD26E82E60E089E40E94596C8111B5
:103CB0000C94B92C802F0E940E308111B8C60C9440
:103CC000B92C0E948B900C94DD268091260D8130BA
:103CD00011F00C94DD2682E08093260D0E9441A114
:103CE00060937303709374038093750390937603CA
:103CF0000C94DD268091630A83FF02C00C94DD26BC
:103D00000E94206C87FF02C00C94DD2683E50E9490
:103D1000482F882381F00E94C82E0E9488D3CB01AF
:103D20000E9497A18091C2059091C30586359105A7
:103D300014F40C94FC2C0E9480870C94DD26809156
:103D4000630A83FF02C00C94DD260E94206C8EAFB4
:103D500087FF02C00C94DD2683E50E94482F8A8FDE
:103D6000811107C082E50E94482F811102C010E036
:103D700034C00E94C82E0E9488D3CB010E9497A114
:103D80008091C2059091C3058635910514F40C9479
:103D9000022D0E948B906091C2057091C305072E81
:103DA000000C880B990B0E943ECB6B017C0180902C
:103DB000BE059090BF05A090C005B090C105A501BB
:103DC00094010E947CD4181614F40C94222D4A8D70
:103DD000442311F40C94082D11E00E9480871123D4
:103DE00011F40C94DD265091720361965FAF6197D8
:103DF0001092720381E0809320021AA21BA21CA2DF
:103E00001DA21AAA1BAA1CAA1DAA23961FAE23979D
:103E10008CE327968FAF27979CE12B969FAF2B972C
:103E2000A6E46096AFAF6097C12CD12C90E8E92E44
:103E30002FEBF22E1E8EB1E0BEAB812C912C5401E3
:103E40006091C2057091C305072E000C880B990B79
:103E50000E943ECB162F072F782E692E9601A701C0
:103E60000E9437CB882321F12091BE053091BF05F8
:103E70004091C0055091C105EA8D612F702F872DAB
:103E8000962DE11107C00E9437CB881F8827881F15
:103E90008E8F14C00E9437CB87FF0FC08091200205
:103EA000882309F413C1109220020E9496BF0EC10C
:103EB0001C2D0D2D7E2C6F2C01C01E8E0E9441A149
:103EC0006B017C01DC01CB012AA93BA94CA95DA9AE
:103ED000821B930BA40BB50BB7FD33C0D701C601F2
:103EE00088519C4FAF4FBF4F8AAB9BABACABBDABC8
:103EF0008EAD0E94D8A180E09BE00E943A308114F0
:103F00009104A104B104B9F0D501C401805F984DBA
:103F1000AF4FBF4FBC01CD016C197D098E099F09C0
:103F200028EE33E040E050E00E9477D1CA01B901A9
:103F30000E94FB3103C08FE30E9433308AE00E946D
:103F400033300E94D1320E9441A160938D0370935F
:103F50008E0380938F03909390039091BE059EA350
:103F6000A091BF05AAA7B091C005BEA7E091C10569
:103F7000EAAF292F3A2F4B2F5E2F612F702F872DFD
:103F8000962D0E941BD21B012C0120E030E0A901DC
:103F90000E947CD487FF04C057FA509457F850947D
:103FA00081149104A104B104E1F420E030E040E880
:103FB0005FE3C201B1010E9437CB87FF1EC0FEA99B
:103FC000FF2339F085E0882E8DE0982EA12CB12CAE
:103FD00003C0812C912C54018C0C9D1CAE1CBF1C69
:103FE0000CC020E030E040E450E4C201B1010E9486
:103FF0007CD4181614F4460157012E8D222309F49F
:1040000048C08AA19BA1ACA1BDA1892B8A2B8B2B77
:1040100061F0D701C6012AA13BA14CA15DA1821B81
:10402000930BA40BB50BB7FD34C02EA13AA54EA53A
:104030005AAD23966FAD239727967FAD27972B9682
:104040008FAD2B9760969FAD60970E941BD220E0AA
:1040500030E040EC5FE30E9437CB87FD1FCFD701F4
:10406000C601805A9541AF4FBF4F8AA39BA3ACA313
:10407000BDA39EA123969FAF2397AAA52796AFAF76
:104080002797BEA52B96BFAF2B97EAAD6096EFAFF3
:10409000609780912002882309F400CF8114910455
:1040A000A104B10431F41EAAC12ED02EE72CF62CA7
:1040B000C7CEF0E1CF1AF7E2DF0AE108F108C8182D
:1040C000D908EA08FB08F7FCEECFE8CE61962FADE1
:1040D00061972093720371C60E94206C182F87FD90
:1040E0000AC082E997E00E943A30812F0E94D8A14D
:1040F0008AE00E9433302F963FAD2F973093A6036E
:104100000C949E2E80E50E94E9BFF82E42E04817ED
:1041100008F453C681E40E94FF2E882321F06091A9
:10412000A605062F02C00FEF10E083E50E94482F7E
:10413000882349F00E94B82E8B016F3F710519F05A
:1041400010F00FEF10E0EF2DF0E0EA55FA4F00838A
:1041500034C680E50E94E9BF833008F02EC6E82F00
:10416000F0E0EA55FA4F108228C68EE40E94482FEC
:10417000882309F422C60E94B82E60936E037093C0
:104180006F03809370039093710317C683E50E94B9
:10419000FF2E882329F083E50E94E9BF8093630AFC
:1041A0000E94603089EF9AE00E943A308091630A61
:1041B000882369F1BBE9EB2EBBE0FB2E00E010E0A9
:1041C00020E08091630A90E0A0E0B0E0002E04C0FF
:1041D000B695A795979587950A94D2F780FF0EC05C
:1041E000DD24D394D20E222319F08CE20E943330C6
:1041F000F701859194910E943A302D2D0F5F1F4F4A
:1042000052E0E50EF11C05301105D9F604C085EF2A
:104210009AE00E943A308AE00E943330CEC5109274
:104220007B0310922002C9C541E060E070E087EE98
:104230009AE00E946430C1C50E948F2FBEC583E5FD
:104240000E94482F882371F00E940C6C282F30E0C8
:104250002D3331051CF480931F02AFC58CE380938E
:104260001F02ABC50E946030C0901F02D12CE12C10
:10427000F12C80EE9AE00E943A304AE0C701B60184
:104280000E948E318AE00E94333097C583E50E94F8
:10429000482F882309F491C50E940C6C182F90E0D8
:1042A000CD970CF01CE310936D030E9441A16B01AC
:1042B0007C01212F30E0A8EEB3E00E94C3D1C60EEE
:1042C000D71EE81EF91EC0926903D0926A03E092DD
:1042D0006B03F0926C0371C50E94D5B20E94B59039
:1042E0000E9416881092A6051092A7051092A805A4
:1042F00068EE73E080E090E00E94552F60E080ED72
:104300009AE00E94CB5F59C58091A2038F7E8062A4
:104310008093A20352C583E50E94482F8823E9F0C9
:104320000E9441A160938D0370938E0380938F034D
:10433000909390030E94C82E20E030E04AE754E4B6
:104340000E949DCB0E948FD360931B0270931C022E
:1043500080931D0290931E0230C58091770384FFE5
:1043600002C00C94252D8091790387FF02C00C9424
:10437000252D80917A03837011F00C94252D0C94D7
:10438000512D83E50E94FF2E882309F416C50E9453
:1043900041A160938D0370938E0380938F0390935C
:1043A00090030E94C82E20E030E04AE754E40E94C7
:1043B0009DCB0E948FD360936403709365038093B9
:1043C000660390936703F9C40E94206C87FDF5C4CF
:1043D0009091770394FD04C09091790397FF0AC0F0
:1043E000FAE4CF2EF2E0DF2EA4E6EA2EAAE0FA2EBF
:1043F00010E009C090917A03937091F7682F81E0E3
:104400000E94C16BDAC4D6018D916D010E94482FC4
:10441000882309F459C0133009F04FC00E94C82EF8
:104420004B015C0120E030E040EA51E40E9437CBD0
:1044300087FF3AC0A50194016091840A7091850AB2
:104440008091860A9091870A0E9416D32B013C0125
:104450009B01AC016091940A7091950A8091960A33
:104460009091970A0E949DCB6093940A7093950A4D
:104470008093960A9093970A60919E0570919F058C
:104480008091A0059091A1050E943CCBA3019201CF
:104490000E949DCB0E948FD360939E0570939F05D1
:1044A0008093A0059093A1058092840A9092850A3A
:1044B000A092860AB092870A07C00E94C82EF70110
:1044C000648B758B868B978B1F5FF4E0EF0EF11C6E
:1044D000143009F098CF0E94168C6FC40E9431BF2F
:1044E0008FE494E00E94A3B768C480917C0390910C
:1044F0007D03009759F0DC012C91222339F02091A3
:10450000220D21115AC40E94A95F57C40E9496BF70
:1045100054C400917C0310917D0394E0F12C40E0A1
:10452000915021F1F8018081282F2B7F213421F433
:1045300021812133D9F407C08035C1F481818053B2
:104540008A3048F013C0813421F0853421F441E0F1
:1045500002C0FF24F39498012E5F3F4F89012F5F23
:104560003F4FF80180818032C9F3DACF41110E94B8
:104570006030FF2021F08FE998E00E943A30C801B6
:104580000E94B0321AC420938B0320938A030E94A6
:10459000319013C40E94206C182F87FD0EC4009127
:1045A000630384E40E94482F882311F40C94542D53
:1045B0000E94C82E6B017C0120E030E0A9010E941E
:1045C00037CB882341F124E01202F0011124E15A93
:1045D000FC4FC082D182E282F38220E030E0A90168
:1045E00060915F0370916003809161039091620319
:1045F0000E9437CB81110CC080E090E0A0EEBFE3B9
:1046000080935F0390936003A0936103B093620370
:1046100001E00C94542D80E0809363030E9427886E
:10462000CCC30E94206C87FDC8C37AE4E72E72E0F9
:10463000F72E04E61AE0E4E7CE2EEAE0DE2ED701FC
:104640008D917D010E94FF2E882359F00E94C82E73
:104650000E948FD3F80160837183828393830E94C9
:10466000BF870C5F1F4FC016D10649F7A6C30E9433
:10467000206C87FDA2C36AE4E62E62E0F62E04E613
:104680001AE0D7018D917D010E94FF2E882339F019
:104690000E94C82EF80164A375A386A397A30C5F9C
:1046A0001F4FFAE004371F0761F787C38091780333
:1046B00087FF02C00C945A2D809179038E7011F0FF
:1046C0000C945A2D4091980A5091990A60919A0A37
:1046D00070919B0A8FE898E00E94993240919C0A61
:1046E00050919D0A60919E0A70919F0A8CE898E013
:1046F0000E9499324091A00A5091A10A6091A20AA9
:104700007091A30A89E898E00E9499328AE00E9499
:10471000333053C38091770381FF02C00C94A02DE6
:104720008091780381FF02C00C94A02D80917903C1
:104730008C7011F00C94A02D40C31F5FB4E0EB0E01
:10474000F11C133011F40C94701B88E5810F0E944A
:10475000FF2E882391F30E94C82ED7016D937D937D
:104760008D939C931397812F0E94A88DE6CF409044
:10477000370D5090380D6090390D70903A0D2091A2
:104780000302309104024091050250910602C301D8
:10479000B2010E941CD26A8F7B8F8C8F9D8F80907C
:1047A0003B0D90903C0DA0903D0DB0903E0D2091A2
:1047B0000702309108024091090250910A02C50196
:1047C000B4010E941CD26E8F7F8F88A399A3C090E2
:1047D0003F0DD090400DE090410DF090420D2091A2
:1047E0000B0230910C0240910D0250910E02C70154
:1047F000B6010E941CD26AA37BA38CA39DA3209127
:104800000F02309110024091110250911202C30127
:10481000B2010E941CD22B013C0120911302309165
:1048200014024091150250911602C501B4010E9474
:104830001CD24B015C01209117023091180240916B
:10484000190250911A02C701B6010E941CD26B01D5
:104850007C010E9460308AE598E00E943A3083E54E
:104860000E94FF2E882321F00E94496C809302024F
:1048700080910202882319F08CE697E002C081EF54
:1048800099E00E943A3082E598E00E943A304A8DE1
:104890005B8D6C8D7D8D8DEA9AE10E9499324E8DF3
:1048A0005F8D68A179A185EC91E20E9499324AA1BD
:1048B0005BA16CA17DA18FEB91E20E94993286EA07
:1048C0009DE00E943A308AE498E00E943A30B301B9
:1048D000A2018DEA9AE10E949932B501A40185EC0A
:1048E00091E20E949932B701A6018FEB91E20E94FA
:1048F00099328AE00E94333060C283E50E94482FDB
:10490000882331F00E94B82E709322026093210216
:104910008091770390917803A0917903B0917A0305
:10492000892B8A2B8B2B09F048C260912102709150
:10493000220286E498E00E94173285E20E9433301A
:104940008AE00E94333039C20E94206CF82E87FD25
:1049500034C283E50E94482F0F2D0F2C000C110B41
:10496000882369F10E94B82EF801EE0FFF1FE05076
:10497000FE4F71836083000F111F000F111FF8019C
:10498000E55DFD4F7F01072E000C880B990B0E94FF
:104990003ECB2AE037ED43E25CE30E949DCBF80179
:1049A000E15BFC4F20813181428153810E949DCB8C
:1049B000D7016D937D938D939C931397FEC10E94B5
:1049C000603085E40E94333080E38F0D0E943330E5
:1049D000000F111FF801E050FE4F608171818EE3DE
:1049E00098E00E94173285E20E9433308AE00E94EC
:1049F0003330E3C180E50E94FF2E882309F4DDC136
:104A000060E070E080E50E94AE6BF82E6FEF7FEF04
:104A100083E50E94AE6B8C010196039708F0CDC12F
:104A2000F7FCCBC18F2D0E940E30882339F00E94F5
:104A30005C308FE09BE00E943A30BFC10E94068844
:104A400060E08F2D0E945EB10F3FBFEF1B0731F07A
:104A50000130110571F000E010E00DC08F2D0E94B3
:104A600006B131E020E0892B09F030E0032F122F4E
:104A700002C001E010E08F2D0E9406B1801791075F
:104A800009F49BC10E94D132F6CF83E50E94482FE2
:104A9000882321F00E94B82E8B0102C004E011E0AF
:104AA00080E50E94482F882349F00E94B82ECB0150
:104AB0006938734128F088E893E102C088EE93E0FA
:104AC000B8010E947C5F79C185E40E94E9BF811131
:104AD00073C080E50E94FF2E882351F00E94C82EEB
:104AE0006093C5057093C6058093C7059093C8056C
:104AF00089E40E94FF2E882381F00E94C82E2CEAB0
:104B000035EC47E25EE30E949DCB6093C90570934C
:104B1000CA058093CB059093CC0584E40E94FF2EB8
:104B2000882381F00E94C82E2CEA35EC47E25EE330
:104B30000E9416D36093CD057093CE058093CF0568
:104B40009093D0050E9460304091C5055091C605F4
:104B50006091C7057091C80588E298E00E9499327B
:104B60002CEA35EC47E25EE36091C9057091CA0515
:104B70008091CB059091CC050E9416D3AB01BC016E
:104B800084E298E00E9499322CEA35EC47E25EE339
:104B90006091CD057091CE058091CF059091D005A3
:104BA0000E949DCBAB01BC0180E298E00E9499324B
:104BB0008AE00E94333001C10E945C308CE298E0B0
:104BC0000E943A30FAC083E50E94FF2E182F8823F6
:104BD00071F00E94C82E0E9488D3709330026093B7
:104BE0002F0221E0672B09F020E02093B90580E532
:104BF0000E94FF2E882359F020912F02309130021D
:104C0000232B11F00E94496C8093B905D6C0111175
:104C1000D4C00E9460308DE098E00E943A308091CC
:104C2000B905882319F085E290E202C084EF97E08D
:104C30000E943A3060912F02709130028CEF97E021
:104C40000E94173288EF97E00E943A30B6C00E9467
:104C50006E6CB3C090918C0390FD02C087E001C0E0
:104C600086E091FD8D7F9E012F5F3F4F190192FFDE
:104C7000C0C78B7F11F00C942E2E0FE81BE087E24B
:104C80009DE09B8F8A8F9CE8C92E9BE0D92E7901ED
:104C9000F8016591759185919491AA8DBB8D8D9048
:104CA0009D90AD90BD90BB8FAA8FA50194010E94ED
:104CB0001BD22B013C01F7016083718382839383B4
:104CC00020E030E040EA51EC0E947CD487FD0AC02D
:104CD00020E030E040EA51E4C301B2010E9437CB4A
:104CE00018162CF4F601849118160CF4BAC7D701E3
:104CF0008D909D90AD90BD907D0120E030E040EA28
:104D000051ECC501B4010E947CD487FDB5C720E0F9
:104D100030E040EA51E4C501B4010E9437CB1816D7
:104D20000CF0BCC7A9C70E94BB4D80E00E94374F62
:104D300044C00E94BB4D41C061E083E50E94596CB4
:104D400091E089270E94374F38C081E08093A1030A
:104D50001092220D60E083E50E94596C81112DC0F4
:104D60000E9412692AC00E94B9BF27C00091A30304
:104D70001091A4030E9441A160938D0370938E0350
:104D800080938F03909390030023B9F00E946030CA
:104D900084E50E943330B8017727072E000C880B7A
:104DA000990B0E94FB3180E20E9433308CE298E044
:104DB0000E943A3002C00E94B9BFE0914E03F0E079
:104DC000E956FB4F8081882339F082E997E00E9401
:104DD0003A308AE00E9433302F96FFAD2F97F09340
:104DE000A603ACC711E022E02216310409F010E05E
:104DF00020E030E0A901C701B6010E9437CB881F2F
:104E00008827881F1813A4C020E030E040E85FE343
:104E10002AA33BA34CA35DA32A8D3B8D4C8D5D8DB6
:104E2000C501B4010E941BD220E030E040E05FE306
:104E30000E949DCB6A8F7B8F8C8F9D8F2E8D3F8D97
:104E400048A159A1C301B2010E941BD220E030E069
:104E500040E05FE30E949DCB6E8F7F8F88A399A374
:104E60002A8D3B8D4C8D5D8DCA01B9010E949DCB71
:104E70004B015C012E8D3F8D48A159A1CA01B9019A
:104E80000E949DCB9B01AC01C501B4010E941CD2C4
:104E90000E941AD54B015C019B01AC01C701B60110
:104EA0000E941BD22B013C01A5019401C701B60150
:104EB0000E941CD29B01AC01C301B2010E949DCB98
:104EC0006B017C0120E030E0A9010E947CD487FDC9
:104ED00007C0C701B6010E941AD52B013C0103C0CF
:104EE000412C512C32016E8D7F8D88A199A1905853
:104EF000A50194010E9416D32AA13BA14CA15DA15A
:104F00000E949DCBA30192010E949DCB2A8D3B8DD7
:104F10004C8D5D8D0E941CD26B017C01A50194011A
:104F20006A8D7B8D8C8D9D8D0E9416D32AA13BA10D
:104F30004CA15DA10E949DCBA30192010E949DCB3B
:104F40002E8D3F8D48A159A10E941CD20C94951A18
:104F500080E090E0A0E8BFEB8AA39BA3ACA3BDA335
:104F60005BCF0E945C3086E79BE00E943A3025CF01
:104F700020E030E0A901C701B6010E9437CB8823A9
:104F800081F31AA21BA21CA21DA2A70196015058D0
:104F90002A8F3B8F4C8F5D8F8AA19BA1ACA1BDA1B5
:104FA000B0588E8F9F8FA8A3B9A3CA01B9010E94E0
:104FB0009DCB4B015C012E8D3F8D48A159A1CA01AB
:104FC000B9010E949DCB9B01AC01C501B4010E94B7
:104FD0001CD20E941AD56EAB7FAB88AF99AF2091DF
:104FE000270D3091280D4091290D50912A0D2EA3A7
:104FF0003FA348A759A7A70196016EA17FA188A545
:1050000099A50E941CD26AAF7BAF8CAF9DAF8091F7
:105010002B0D90912C0DA0912D0DB0912E0D8AA7E6
:105020009BA7ACA7BDA72AA13BA14CA15DA1BC0138
:10503000CD010E941CD222966CAF7DAF8EAF9FAF88
:1050400022972091910330919203409193035091C4
:1050500094032EA73FA748AB59AB2AAD3BAD4CAD4F
:105060005DAD6EA57FA588A999A90E941BD26B0191
:105070007C018091950390919603A0919703B09144
:1050800098038AAB9BABACABBDAB22962CAD3DADD0
:105090004EAD5FAD2297BC01CD010E941BD24B01EA
:1050A0005C01A70196016A8D7B8D8C8D9D8D0E9480
:1050B0009DCB2B013C01A50194016E8D7F8D88A1B4
:1050C00099A10E949DCB9B01AC01C301B2010E943A
:1050D0001CD22B013C01A50194016A8D7B8D8C8D26
:1050E0009D8D0E949DCB4B015C01A70196016E8DA9
:1050F0007F8D88A199A10E949DCB9B01AC01C50128
:10510000B4010E941BD2A30192010E949BD26B01A9
:105110007C0120E030E0A9010E9437CB87FF0AC064
:105120002BED3FE049EC50E4C701B6010E941CD2D0
:105130006B017C012BED3FE049EC50E4C701B60167
:105140000E9416D320E030E040EC51E40E949DCB59
:105150000E94FAD20E948FD38B01672B11F401E0D9
:1051600010E032E02316310451F42BED3FE049EC1E
:1051700050E4C701B6010E941BD26B017C0120E004
:1051800030E0A901C701B6010E9437CB811122C0CE
:105190002EA53FA548A959A96EA17FA188A599A5CB
:1051A0000E9437CB811116C02AA93BA94CA95DA941
:1051B0006AA57BA58CA59DA50E9437CB81110AC04D
:1051C00008E110E0EBEDCE2EEFE0DE2EE9ECEE2E66
:1051D000E0E4FE2E80912F0D9091300DA091310DC5
:1051E000B091320D8AA79BA7ACA7BDA79C01AD01CA
:1051F0006091990370919A0380919B0390919C0315
:105200000E941BD22B013C01A70196016EA97FA928
:1052100088AD99AD0E949DCB4B015C0120E030E050
:10522000A901C301B2010E9437CB8823C9F0A501AF
:105230009401C501B4010E949DCB4B015C01A30107
:105240009201C301B2010E949DCB9B01AC01C5013B
:10525000B4010E941CD20E941AD54B015C010DC002
:1052600020E030E0A901C501B4010E947CD487FF91
:1052700004C0B7FAB094B7F8B0942FE632E143E82F
:105280005AE3C501B4010E9437CB87FD13C22091B8
:105290009D0330919E0340919F035091A0032AAB40
:1052A0003BAB4CAB5DAB8091330D9091340DA09135
:1052B000350DB091360D8EA79FA7A8ABB9AB2AE0EC
:1052C00037ED43E25CE36091230270912402809108
:1052D0002502909126020E949DCB6EA37FA388A7F2
:1052E00099A76091210270912202072E000C880B71
:1052F000990B0E943ECB9B01AC016EA17FA188A5BA
:1053000099A50E949DCB6E8B7F8B888F998FC5014D
:10531000B4010E94BED30E948FD31B016017710796
:1053200008F41801B10180E090E00E943CCB4B01F1
:105330005C019B01AC01C701B6010E9416D36EA3AC
:105340007FA388A799A7A5019401C301B2010E9478
:1053500016D32A966CAF7DAF8EAF9FAF2A972EA53E
:105360003FA548A959A96AA97BA98CA99DA90E9412
:105370001BD2A50194010E9416D32E966CAF7DAF6F
:105380008EAF9FAF2E972EA13FA148A559A5CA0168
:10539000B9010E949DCB6B017C019B01AC016EA108
:1053A0007FA188A599A50E949DCB20E030E040EC2C
:1053B00050E40E9416D39B01AC016EA17FA188A589
:1053C00099A50E941BD26AAB7BAB8CAB9DAB20E056
:1053D00030E040E05FE3C701B6010E949DCB9B0136
:1053E000AC0160E070E080E89FE30E941BD26EABEE
:1053F0007FAB88AF99AF2AA53BA54CA55DA52987B2
:105400003A874B875C878EA59FA5A8A9B9A98D87E8
:105410009E87AF87B88B0E9441A19B01AC012853A6
:105420003F4F4F4F5F4F26962CAF3DAF4EAF5FAF14
:1054300026974A8C5B8C6C8C7D8C41E050E05BA79E
:105440004AA759E15EA78AA59BA58215930508F096
:105450000BC10E94CCB40E9441A1DC01CB01269675
:105460002CAD3DAD4EAD5FAD2697821B930BA40BCB
:10547000B50BB7FD10C00E9441A19B01AC012853A0
:105480003F4F4F4F5F4F26962CAF3DAF4EAF5FAFB4
:1054900026970E94D1323EA531503EA73323E9F131
:1054A0002E8D3F8D48A159A16EA97FA988AD99ADD8
:1054B0000E949DCB6B017C019201A3016AA97BA98B
:1054C0008CA99DA90E949DCBA70196010E941CD288
:1054D0007B018C019201A3016EA97FA988AD99ADD2
:1054E0000E949DCB4B015C012E8D3F8D48A159A19F
:1054F0006AA97BA98CA99DA90E949DCB9B01AC01A7
:10550000C501B4010E941BD22B013C01C701D80187
:105510008E8F9F8FA8A3B9A34FC04AA55BA5BA01E0
:1055200080E090E00E943CCB2EA13FA148A559A568
:105530000E949DCB4B015C010E9411D36B017C0149
:10554000C501B4010E940CD54B015C01A701960175
:105550006A8D7B8D8C8D9D8D0E949DCB2B013C0196
:105560002AA13BA14CA15DA1C501B4010E949DCB24
:10557000A30192010E941CD22B013C01A5019401C0
:105580006A8D7B8D8C8D9D8D0E949DCB4B015C0126
:105590002AA13BA14CA15DA1C701B6010E949DCBF0
:1055A0009B01AC01C501B4010E941BD26E8F7F8F9D
:1055B00088A399A359E15EA79201A3016AAD7BADCF
:1055C0008CAD9DAD0E941CD269837A838B839C83B2
:1055D0002E8D3F8D48A159A122966CAD7DAD8EAD2B
:1055E0009FAD22970E941CD26D837E838F83988704
:1055F0002A962CAD3DAD4EAD5FAD2A9769857A8573
:105600008B859C850E941CD269877A878B879C87B3
:105610002E962CAD3DAD4EAD5FAD2E976D857E8542
:105620008F8598890E941CD26D877E878F87988B83
:10563000CE0101960E94C88D8E010A5E1F4F9E0109
:10564000235F3F4FAE01475F5F4FBE016B5F7F4FF0
:10565000CE0101960E940E87882331F08AA59BA572
:1056600001969BA78AA7EFCE80E1E1E9F3E0DE0196
:10567000119601900D928A95E1F7CE0101960E9454
:10568000C88D8E010A5E1F4F9E01235F3F4FAE0102
:10569000475F5F4FBE016B5F7F4FCE0101960E9457
:1056A0000E8780E1FE013196A7E2BDE001900D92E8
:1056B0008A95E1F70E9441A160938D0370938E0358
:1056C00080938F039093900378CB0E9406880E946A
:1056D00041A160938D0370938E0380938F03909309
:1056E00090038091230290912402A0912502B09111
:1056F00026028093A9039093AA03A093AB03B093CF
:10570000AC0380912102909122029093A803809390
:10571000A70384E690E0909322028093210281E027
:1057200080938B030E9431908AE50E94FF2E382ED1
:1057300088E50E94FF2E882E89E50E94FF2E8812A0
:10574000ECC0381411F0D82C06C0DD24D394882482
:1057500083943324339482E50E94482F882369F090
:105760000E94C82E2B013C0120E030E0A9010E94DC
:1057700037CB882309F4A1C006C0412C512C70EA14
:10578000672E70E4772E811003C0DD2009F49FC0DE
:1057900020E030E0A901C301B2010E941CD27B01CC
:1057A0008C0190902F0DC090300DB090310DA090D5
:1057B000320D292D3C2D4B2D5A2D0E9437CB409078
:1057C000270D5090280D6090290D70902A0D209182
:1057D0002B0D30912C0D40912D0D50912E0D2A8FB7
:1057E0003B8F4C8F5D8F20E030E048E453E487FD31
:1057F0008CC2B701C8010E9437CB87FD04C0E12CE1
:10580000F12C08E413E480E090E0A0E8B0E48E8B93
:105810009F8BA88FB98F89839A83AB83BC839701B1
:10582000A801692D7C2D8B2D9A2D0E9437CB87FFE7
:105830000EC0C701D80180932F0D9093300DA09317
:10584000310DB093320DCE0146960E94698E409282
:10585000270D5092280D6092290D70922A0D8A8D85
:105860009B8DAC8DBD8D80932B0D90932C0DA093B3
:105870002D0DB0932E0DCE0101960E94698E9701D9
:10588000A80160912F0D7091300D8091310D909194
:10589000320D0E947CD4181674F4C701D80180938D
:1058A0002F0D9093300DA093310DB093320DCE019A
:1058B00046960E94698E0E940688882019F080E032
:1058C0000E94BB8EDD2019F081E00E94BB8E332048
:1058D00019F082E00E94BB8E0E94798E80918A032B
:1058E00080938B038091A9039091AA03A091AB03AD
:1058F000B091AC038093230290932402A0932502DD
:10590000B09326028091A7039091A803909322025E
:10591000809321020E948C8F50CAD82E1CCF0E94E7
:10592000D1320C946B1D10927B031093A60345CAD1
:1059300088E50E94FF2E81115F9889E50E94FF2E65
:1059400081118A988AE50E94FF2E81118C9885E446
:105950000E94FF2E882309F430CA12982ECA60E0F4
:1059600081E59BE00E94CB5F5F988A988C981298A3
:1059700024CA8DE40E94482F8823A9F00E940C6C51
:10598000813039F020F0823049F462E003C060E0F9
:1059900001C061E0802F0E945EB105C08EE19BE0F6
:1059A0000E943A300ACA83E50E94482F882309F4EE
:1059B00004CA0E940C6CF82EFDE2EF1649F02EE2AC
:1059C000E21649F03CE2E31209C08093A605F5C94E
:1059D0008093A705F2C98093A805EFC961E0802FE5
:1059E0000E945EB16F2D802F0E942FB16F2D70E04D
:1059F000802F0E949AB1E1C90E94B5900E9496BF83
:105A00000C949B1E0E94B5900E9496BF0C94CB1ED6
:105A1000A5019401C701B6010E947CD4181694F028
:105A200084E09BE09F938F938DE29FE29F938F93FF
:105A30001F920E94F0BF0F900F900F900F900F9049
:105A40000C94EC1E87E897E0EDCF0E94068888E56D
:105A50000E94FF2E882331F05F9A809168038E7F29
:105A60008093680389E50E94FF2E882331F08A9A8B
:105A7000809168038D7F809368038AE50E94FF2EE2
:105A8000882331F08C9A809168038B7F8093680320
:105A900085E40E94FF2E882309F48FC90E94792F84
:105AA0008CC90E94168889C9602F83E50E94596CB1
:105AB0000C940C2383E50E94482F882391F00E94C8
:105AC000C82E6093980A7093990A80939A0A9093CB
:105AD0009B0A6093A00A7093A10A8093A20A9093F4
