:100000000C94C5180C94F6180C94F6180C94F61869
:100010000C94F6180C94F6180C94F6180C94F61828
:100020000C94F6180C94F6180C94F6180C94F61818
:100030000C94F6180C94F6180C94F6180C94F61808
:100040000C94F6180C9494460C94F6180C94F6182C
:100050000C94F6180C94F6180C94B2B20C9462A19D
:100060000C94F6180C9424370C941A370C94F61848
:100070000C94F6180C94F6180C94F6180C94F618C8
:100080000C94F6180C94F6180C94F6180C94F618B8
:100090000C94F6180C94F6180C94F6180C94F618A8
:1000A0000C94F6180C94F6180C94F6180C94F61898
:1000B0000C94F6180C94F6180C94F6180C94F61888
:1000C0000C94F6180C94F6180C94F6180C94F61878
:1000D0000C94F6180C94F6180C94F6180C94F61868
:1000E0000C94F6181E5A295A3C5A475A5A5A655ABD
:1000F000785A2C60306033602E603660396045601D
:100100005460E963F46307641264256430644364F3
:100110004E647F648C649A64A764B564C264D264DC
:10012000F76433653365336533653365336533654C
:10013000336533653365246527652A652D656865F4
:10014000776590659F65B865C765E065EF65206672
:100150002366416628662B663266356638664166D8
:100160003B66AC70CE70AF70CE70B270B570B870C8
:10017000CE70BB70BE70CE70C570CE70CE70C870C1
:10018000DBA9E6A9F9A904AA17AA22AA35AA40AAB6
:100190001EAE21AE10AE14AE1AAE58AE25AE29AECC
:1001A0002FAE33AE37AE3DAE41AE45AE58AE4BAEE0
:1001B0004FAE53AED8B1DDB1E2B1ECB1F6B16FB232
:1001C00000B208B210B21AB224B22EB23DB247B297
:1001D0006FB251B25BB265B22DC130C130C130C116
:1001E0005FC15FC144C14AC15FC154C154C15FC155
:1001F0005FC15FC15BC1084AD73B3BCE016E84BC87
:10020000BFFDC12F3D6C74319ABD56833DDA3D0070
:10021000C77F11BED9E4BB4C3E916BAAAABE0000B9
:1002200000803F05A84CCDB2D44EB93836A9020C97
:1002300050B9918688083CA6AAAA2ABE0000008070
:100240003F08000000BE922449123EABAAAA2ABE73
:10025000CDCCCC4C3E00000080BEABAAAAAA3E008A
:10026000000000BF000000803F00000000000841C7
:1002700078D3BB4387D1133D190E3CC3BD4282AD39
:100280002B3E68EC8276BED98FE1A93E4C80EFFF11
:10029000BE01C4FF7F3F0000000000000C944166D7
:1002A0000C94785A0C9444650C94F93F0C945F6854
:1002B0000C94D9A00C94B59C0C9474A00C94776504
:1002C0000C9430C10C941A400C945BB20C943A65B7
:1002D0000C94A1570C94ECB10C942FAE0C944C439D
:1002E0000C9435660C9444C10C9458AE0C94189F31
:1002F0000C94689E0C9440AA0C94569C0C941F601D
:100300000C94E3AD0C9465B20C9451AD0C94234164
:100310000C9433AE0C949A640C9437AE0C946FB278
:100320000C944AC10C94AF700C9428510C944BAEB1
:100330000C94305D0C9427650C9404AA0C94B57051
:100340000C94B8700C94BA510C94835A0C94E590A8
:100350000C94C09E0C94579B0C94C8700C9454AB96
:100360000C94D8B10C9454600C94EEC00C943743A8
:100370000C944FAE0C94AC700C944E370C94319995
:100380000C94453F0C9447B20C9443640C94396030
:100390000C945A9C0C9494960C9420660C945D9C3E
:1003A0000C94D2640C9480520C945BC10C94D87061
:1003B0000C94A7640C942C600C94D3420C941B9C5A
:1003C0000C94E6A90C94E2B10C944E640C94426334
:1003D0000C9441430C94D9980C9425640C945E9C25
:1003E0000C9414AE0C94F9A90C9410AE0C9435AA8C
:1003F0000C94C03F0C94CD670C94655A0C948457B0
:100400000C9482980C94759A0C941A720C94C45D96
:100410000C94C7A90C9451B20C9421AE0C9408B260
:100420000C941DA00C94EF650C9427510C9453AEC2
:100430000C9417AA0C94B5640C9463C10C942465B5
:100440000C942DC10C9468650C949A540C943360F0
:100450000C945FC10C94FE5A0C942E600C94C570E1
:100460000C94819A0C94D5630C940A5A0C94E06510
:100470000C949F600C94119E0C9490650C94D07019
:100480000C9410B20C9443660C9411A10C94CBA064
:100490000C9486570C94463F0C94DBA90C948874FA
:1004A0000C94BE700C945BAA0C941E5A0C94F6B17A
:1004B0000C94A75A0C94DC9A0C942D650C9400B201
:1004C0000C940F910C94475A0C94F5420C942B9871
:1004D0000C94AE570C94985A0C9420B80C947F51FD
:1004E0000C947F640C947D610C9424B20C94C69F90
:1004F0000C942A650C946F9F0C94C6A90C945065BB
:100500000C9429AE0C9423660C948C640C94C765EF
:100510000C94D0510C941AAE0C9445AE0C94B2705D
:100520000C94B8650C94F6C00C9493590C941EAEC0
:100530000C9432660C94D4630C9454590C9454C1AA
:100540000C9414660C94A0700C94D2A00C949F652B
:100550000C940D9B0C940C9D0C9497570C94E96390
:100560000C941AB20C94A25D0C94EDA00C943B5E1A
:100570000C94BB700C941DC10C94F4630C9425AEC8
:100580000C9466910C94C15B0C943C5A0C941264CC
:100590000C943B660C94855A0C9422AA0C94F76434
:1005A0000C94C55D0C941C570C942B660C94DDB117
:1005B0000C9445600C94B2C00C9438660C942EB226
:1005C0000C9407640C94CD9B0C94D05D0C9428661D
:1005D0000C94F35B0C9483AA0C943DB20C943060A1
:1005E0000C94BA9D0C9467640C945C9C0C94295AEE
:1005F0000C94C2640C9441AE0C94CE700C94589C34
:100600000C94E6900C943DAE0C945E550C943064C2
:100610000C94BD5C0C94745C0C94639D0C945A5ABD
:100620000C9436600C9456590C9433654E414E49E7
:100630004E495459494E46CDCCCC3D0AD7233C17A0
:10064000B7D13877CC2B329595E6241FB14F0A00ED
:100650000020410000C84200401C4620BCBE4CCADD
:100660001B0E5AAEC59D7400407A10F35A00A0725A
:100670004E18090010A5D4E80000E87648170000DD
:10068000E40B54020000CA9A3B000000E1F50500AB
:100690000080969800000040420F000000A08601F4
:1006A000000000102700000000E8030000000064C4
:1006B00000000000000A000000000001000000002F
:1006C000002C76D888DC674F0823DFC1DFAE59E104
:1006D000B1B796E5E3E453C63AE651997696E8E673
:1006E000C28426EB898C9B62ED407C6FFCEFBC9C46
:1006F0009F40F2BAA56FA5F490055A2AF75C936B58
:100700006CF9676DC11BFCE0E40D47FEF520E6B512
:1007100000D0ED902E0300943577050080841E08EC
:100720000000204E0A000000C80C333333330F980A
:100730006E12831141EF8D2114893BE65516CFFED1
:10074000E6DB18D1844B381BF77C1D901DA4BBE45D
:1007500024203284725E228100C9F124ECA1E53D9F
:1007600027434F4D4D554E49434154494F4E004448
:10077000525952554E004552524F525300494E461F
:100780004F004543484F00E58AA0E783ADE4B8AD8C
:10079000202E2E2E006F6B00454550524F4D206489
:1007A000697361626C65640A00E5BD92E4BD8D20E9
:1007B00025732573257320E5858800E5818FE7A7DC
:1007C000BBE5B7B2E590AFE794A8004572723A2056
:1007D000546F6F206661722100546F6F20666172E2
:1007E0002066726F6D207265666572656E63652046
:1007F000706F696E740A006469730043290A0061AE
:10080000626C656420286D696E2074656D702000CF
:10081000436F6C64206578747275646573206172CF
:1008200065200020643A0020693A0020703A0049AF
:100830006E76616C69642065787472756465720A9D
:100840000020466C6F773A200046523A0020204D37
:1008500061783A200020204D696E3A2000536F667F
:100860007420656E6473746F70733A20003F4A2081
:100870006F7574206F662072616E67652028302E58
:10088000303120746F20302E33290A00205400208C
:100890005200416363656C65726174696F6E3A20E2
:1008A00050002F2F20004348414D4245525F544590
:1008B0004D504552415455524500424142595354BE
:1008C000455050494E470041524353004D4F544903
:1008D0004F4E5F4D4F44455300544845524D414C97
:1008E0005F50524F54454354494F4E004C4F4E4772
:1008F0005F46494C454E414D45004155544F524588
:10090000504F52545F53445F535441545553005316
:1009100044434152440050524F4D50545F53555040
:10092000504F525400454D455247454E43595F5034
:10093000415253455200434153455F4C4947485447
:100940005F4252494748544E45535300544F47471E
:100950004C455F4C494748545300534F4654574108
:1009600052455F504F574552004255494C445F50E5
:10097000455243454E54004C4556454C494E475F01
:1009800044415441005A5F50524F42450052554E27
:100990004F5554004155544F4C4556454C0050520C
:1009A000494E545F4A4F420050524F4752455353AD
:1009B000004155544F5245504F52545F54454D508D
:1009C00000564F4C554D45545249430045455052F1
:1009D0004F4D0042494E4152595F46494C455F5484
:1009E00052414E534645520053455249414C5F587F
:1009F0004F4E5F584F4646004649524D574152456B
:100A00005F4E414D453A4D61726C696E206275676B
:100A10006669782D322E302E78202853657020326A
:100A20003620323032302031343A32313A313429C2
:100A300020534F555243455F434F44455F55524CF9
:100A40003A68747470733A2F2F6769746875622EF0
:100A5000636F6D2F4D61726C696E4669726D77615F
:100A600072652F4D61726C696E2050524F544F4326
:100A70004F4C5F56455253494F4E3A312E30204D20
:100A8000414348494E455F545950453A33442050FC
:100A900072696E7465722045585452554445525FD0
:100AA000434F554E543A3120555549443A63656495
:100AB00065326132662D343161322D343734382D50
:100AC000396231322D6335356336326633363766F7
:100AD000660A003344205072696E746572204F4676
:100AE000462E004D3131332053004D3131322053E9
:100AF000687574646F776E006F6666004445425592
:100B0000473A0020573A00E586B7E58DB4E4B8AD22
:100B1000202E2E2E0050726F746563746564205011
:100B2000696E0A00496E76616C69642050696E20B6
:100B30004D6F64650A00256979202569642025695F
:100B4000682025696D20256973005072696E7420D4
:100B500074696D653A2000E697A0E7A7BBE58AA80F
:100B600000E782B9E587BBE7BBA7E7BBAD202E2E28
:100B70002E00E4BC91E79CA0E4B8AD202E2E2E0000
:100B800047322F47332062616420706172616D6566
:100B9000746572730A00FFFFFF0000000000000090
:100BA000000000000082077D0776076F07610700DD
:100BB00000484200004842000080403637263F3C53
:100BC0003D380E2B303A0C1A1C1805FF422C2D2EE6
:100BD000084500014D343130004D313132004D3186
:100BE000303800E5B7B2E5819CE6ADA200507269ED
:100BF0006E7465722073746F7070656420647565BF
:100C000020746F206572726F72732E20466978208F
:100C1000746865206572726F7220616E64207573EE
:100C200065204D39393920746F2072657374617293
:100C3000742E202854656D7065726174757265201C
:100C400069732072657365742E205365742069740E
:100C50002061667465722072657374617274696E66
:100C600067290A004E6F20436865636B73756D20BA
:100C700077697468206C696E65206E756D62657247
:100C80002C204C617374204C696E653A20006368B7
:100C900065636B73756D206D69736D617463682C2A
:100CA000204C617374204C696E653A20004C696E6B
:100CB00065204E756D626572206973206E6F7420B9
:100CC0004C617374204C696E65204E756D6265725F
:100CD0002B312C204C617374204C696E653A2000D6
:100CE0004D313130002121204B494C4C206361753E
:100CF000736564206279204B494C4C206275747492
:100D00006F6E2F70696E0A002121204B494C4C20D8
:100D100063617573656420627920746F6F206D75EF
:100D2000636820696E6163746976652074696D65B6
:100D3000202D2063757272656E7420636F6D6D6116
:100D40006E643A2000627573793A2070617573653C
:100D50006420666F7220696E7075740A0062757324
:100D6000793A2070617573656420666F72207573BF
:100D700065720A00627573793A2070726F636573E9
:100D800073696E670A00E8AFB7E9878DE7BDAE000B
:100D9000E68993E58DB0E5819CE69CBA0025533A3F
:100DA00020255300E5B7B2E69D80E68E890050729B
:100DB000696E7465722068616C7465642E206B695D
:100DC0006C6C28292063616C6C6564210A00656382
:100DD000686F3A004572726F723A00436F6E7469C1
:100DE0006E756F7573004D6F6D656E74617279000D
:100DF0004C6F61642F457874727564657200556E2E
:100E00006C6F61642F5265747261637400486F7413
:100E1000210043617574696F6E3A0052656D6F769B
:100E2000616C2054656D700043757272656E74203C
:100E300054656D70004578747275646572205365F1
:100E40006C656374696F6E004F6B617900F3AD6C14
:100E5000549D416F54053D15564239925AB7363666
:100E600061C8355069C835B096B736CA9E42396EEA
:100E7000A5053DEBA99D4191AB60BE91ABF8C2EBDE
:100E8000A9BBC66EA546C9CA9E35CAB09632CA6C01
:100E900054F3AD6C54FFFF9D4113598CB01359941A
:100EA000C7508294C7B096DAC6FF9CE1C429A2F469
:100EB000C1A5A560BEEDA69D41EDA6093EA5A51C58
:100EC0003B29A22339FF9C6938B0966938506923C1
:100ED0003901631C3BD75D093E5B5A9D411359FFA5
:100EE000FF7AAC20867AAC739367A7739367A7CB1E
:100EF00075C6A1CB75C6A17393C6A18E9C67A78E3C
:100F00009C7AAC8E9C1CB28E9C1CB273931CB2E774
:100F10008550B393805FB6867ED5B9658183BAE785
:100F20008583BA8E9CFEBE8E9C24C0E19924C0208D
:100F3000867BBF227F8FBDA9797EBA17765FB6D038
:100F4000744FB2227630AFC6792FAD437F7AAC2092
:100F5000867AAC20867AAC2086FFFF79818E9CE968
:100F60007C8E9C47778E9C4777EC9247774989A285
:100F700075A381A671737EAB6D8B81056CFC88AF08
:100F80006D1990C771EC920575EC9205758E9C18E1
:100F9000718E9CD36C069B6B69D69629679E905880
:100FA00066FC882D6733818069C77A136D6C76A6DD
:100FB00071D07432766D76C279D17A147C5381E91E
:100FC0007C4989E97CEC927981EC92798120862EAA
:100FD00082437F2E84C6794E8722765E8BD0747CC6
:100FE0008F17768E92A9797994227F239520862374
:100FF00095DB87818FDB87818FE785D48E65815E66
:101000008B867E4F8893801A87E7851A87EC921A21
:10101000878F9C79818F9C79818E9C79818E9CFFB2
:10102000FF1565DB794C6481721862866CB25E8252
:1010300068565A0A67D955E0687252D06D0B4FE076
:10104000688E4A0A6738468268D542866CA240811B
:1010500072D93FDB79D93FC99AE4408E9C6F458EA7
:101060009C6F45B579D4465D738E4AC0703E4E5D27
:1010700073A14FB579A14F8E9C4D558E9C4D55B5A2
:1010800079A7565D73565AC0700C5E5D73745FB578
:1010900079745F8E9C15658E9C1565DB791565DB13
:1010A000791565DB79FFFF72964C8C14977993F56F
:1010B00098D2980B9CF49B4CA07B9C4CA073932BD8
:1010C0009D0C921E9C4C8C1E9C8E6472968E64723B
:1010D000964C8C72964C8C72964C8CFFFF67A79442
:1010E0007167A7026C92A67A6896A40A6791A27AA1
:1010F00068BBA1026CBBA1947167A7947167A794A8
:101100007167A794719D416F54053D155642399200
:101110005AB7363661C8355069C835B096B736CA41
:101120009E42396EA5053DEBA99D4191AB60BE91F4
:10113000ABF8C2EBA9BBC66EA546C9CA9E35CAB0FC
:101140009632CA6C549D416F5400004843000048D9
:10115000430000484300009643000096430000A06F
:10116000400000C8410000A0420000A04200007AF8
:10117000450000FA43B80B0000B80B000064000003
:10118000001027000024F4D43050C38E20C2A240A7
:1011900017828B7011127A910D816CD90AA861E1C6
:1011A00008C7586607615143061E4B5D05C145A738
:1011B000041A411104093D9803713931034036DBAB
:1011C0000265339102D4305402802E1D02632CEE4E
:1011D00001752AC501B028A001102781018F25645F
:1011E000012B244B01E0223401AC211F018D200D85
:1011F00001801FFC00841EED00971DDF00B81CD28B
:1012000000E61BC600201BBC00641AB200B219A87D
:10121000000A19A0006A189900D117910040178B95
:1012200000B516840031167E00B31579003A1573A7
:1012300000C7146F0058146A00EE13660088136329
:101240000025135E00C7125B006C12570015125484
:1012500000C111510070114F0021114B00D61049EF
:10126000008D1047004610440002104200C00F409D
:1012700000800F3E00420F3C00060F3B00CB0E38B3
:1012800000930E37005C0E3500270E3400F30D324C
:1012900000C10D3100900D3000600D2E00320D2D7B
:1012A00000050D2C00D90C2B00AE0C2900850C2953
:1012B000005C0C2700350C27000E0C2600E80B24E0
:1012C00000C40B2400A00B23007D0B23005A0B212C
:1012D00000390B2100180B2000F80A1F00D90A1E44
:1012E00000BB0A1E009D0A1D00800A1D00630A1C27
:1012F00000470A1B002C0A1B00110A1A00F7091AE2
:1013000000DD091900C4091900AB09190092091779
:10131000007B091800630917004C091600360916EE
:1013200000200916000A091500F5081500E0081448
:1013300000CC081400B8081400A408140090081386
:10134000007D0812006B08130058081200460812AE
:1013500000340811002308110012081100010811BF
:1013600000F0071000E0071000D0071000C00710C1
:1013700000B0070F00A107100091070E0083070FB0
:101380000074070F0065070E0057070E0049070E8F
:10139000003B070D002E070E0020070D0013070D60
:1013A0000006070D00F9060C00ED060D00E0060C26
:1013B00000D4060C00C8060C00BC060C00B0060CDD
:1013C00000A4060B0099060C008D060B0082060B8C
:1013D0000077060B006C060B0061060A0057060B2F
:1013E000004C060A0042060A0038060A002E060AC9
:1013F0000024060A001A060A001006090007060A59
:1014000000FD050900F4050900EB050900E20509E6
:1014100000D9050900D0050900C7050900BE050966
:1014200000B5050800AD050800A50509009C0508E4
:1014300000940508008C050800840508007C050858
:1014400000740508006C050700650508005D0507C8
:1014500000560508004E050700470507004005082F
:101460000038050700310507002A05070023050796
:10147000001C050600160507000F050700080506F5
:101480000002050700FB040600F5040700EE040651
:1014900000E8040600E2040700DB040600D50406A9
:1014A00000CF040600C9040600C3040600BD0406FC
:1014B00000B7040600B1040500AC040600A604064B
:1014C00000A00405009B0406009504050090040696
:1014D000008A04050085040500800406007A0405DE
:1014E0000075040500700405006B04050066040522
:1014F00000610405005C0405005704050052040562
:10150000004D04050048040500430405003E0404A2
:10151000003A04050035040500300404002C0405DD
:101520000027040400230405001E0404001A040418
:101530000016040500110404000D0404000904054C
:10154000000404040000040400FC030400F8030485
:1015500000F4030400F0030400EC030400E80304B7
:1015600000E4030400E0030400DC030400D80304E7
:1015700000D4030400D0030400CC030400C8030318
:1015800000C503030024F404D9201BC40C5C0E988E
:1015900004C4095F0265077101F405F900FB04B397
:1015A0000048048700C10369005803550003034540
:1015B00000BE023A008402310053022A00290225AB
:1015C0000004022000E4011C00C8011900AF01174B
:1015D00000980114008401130071011000610110D2
:1015E0000051010E0043010D0036010B002B010BD1
:1015F0000020010B00150109000C0109000301087E
:1016000000FB000800F3000800EB000700E4000600
:1016100000DE000600D8000600D2000600CC00055F
:1016200000C7000500C2000500BD000400B90004A9
:1016300000B5000400B1000400AD000400A90004DE
:1016400000A5000300A20003009F0004009B00030C
:10165000009800030095000200930003009000032F
:10166000008D0002008B000300880002008600024B
:101670000084000300810002007F0002007D000260
:10168000007B000200790002007700010076000272
:10169000007400020072000100710002006F00027D
:1016A000006D0001006C0002006A00010069000288
:1016B000006700010066000100650001006400028F
:1016C000006200010061000100600001005F000293
:1016D000005D0001005C0001005B0001005A000198
:1016E0000059000100580001005700010056000198
:1016F0000055000100540001005300000053000198
:10170000005200010051000100500001004F000193
:10171000004E0000004E0001004D0001004C000191
:10172000004B0000004B0001004A0001004900018D
:10173000004800000048000100470001004600008A
:101740000046000100450000004500010044000182
:10175000004300000043000100420000004200017D
:10176000004100000041000100400001003F000076
:10177000003F0001003E0000003E0001003D00006F
:10178000003D0001003C0000003C0000003C000166
:10179000003B0000003B0001003A0000003A00015D
:1017A0000039000000390001003800000038000056
:1017B000003800010037000000370001003600004B
:1017C0000036000000360001003500000035000042
:1017D0000035000100340000003400000034000136
:1017E000003300000033000000330001003200002D
:1017F0000032000000320001003100000031000022
:101800000031000100300000003000000030000115
:10181000002F0000002F0000002F0000002F00010B
:10182000002E0000002E0000002E0001002D000000
:10183000002D0000002D0000002D0001002C0000F4
:10184000002C0000002C0000002C0001002B0000E8
:10185000002B0000002B0000002B0001002A0000DC
:10186000002A0000002A0000002A000100290000D0
:1018700000290000002900000029000000290001C3
:1018800000280000002800000028000000280000B8
:1018900000280001002700000027000000270000AA
:1018A000002700000027000100260000002600009D
:1018B0000026000000260000002600010025000090
:1018C0000025000000250000002500000025000084
:1018D0000025000100240000002400000024000076
:1018E0000024000000240001002300000023000069
:1018F000002300000023000000230000002300005C
:10190000002300010022000000220000002200004D
:10191000002200000022000000220001002100003F
:101920000021000000210000002100000021000033
:101930000021000000210001002000000020000024
:101940000020000000200000002000000020000017
:101950000020000000200001001F0000001F000008
:10196000001F0000001F0000001F0000001F0000FB
:10197000001F0001001E0000001E0000001E0000ED
:10198000001E000000043700001E290000511B004B
:10199000005810000010090000CC0400007802007C
:1019A000004101000048617264636F646564204413
:1019B000656661756C742053657474696E67732015
:1019C0004C6F616465640A003B20002049002020C0
:1019D0004D33303120500050494420736574746990
:1019E0006E67733A0020204D323036205800486F21
:1019F0006D65206F66667365743A00204A0020208A
:101A00004D323035204200416476616E6365643A40
:101A100020423C6D696E5F7365676D656E745F74BF
:101A2000696D655F75733E20533C6D696E5F6665D9
:101A30006564726174653E20543C6D696E5F7472BA
:101A40006176656C5F66656564726174653E204AA7
:101A50003C6A756E635F6465763E0020204D3230CF
:101A600034205000416363656C65726174696F6E08
:101A70002028756E6974732F7332293A20503C7098
:101A800072696E745F616363656C3E20523C72657F
:101A900074726163745F616363656C3E20543C746F
:101AA000726176656C5F616363656C3E0020204DFA
:101AB0003230312058004D6178696D756D20416379
:101AC00063656C65726174696F6E2028756E6974E8
:101AD000732F7332293A0020450020204D323033D5
:101AE0002058004D6178696D756D2066656564727A
:101AF000617465732028756E6974732F73293A00B9
:101B000053746570732070657220756E69743A0045
:101B100020440020204D323030205300204469738F
:101B200061626C65640A0046696C616D656E742063
:101B300073657474696E67733A0020286D6D2900AF
:101B40002020473231202020203B20556E697473BD
:101B500020696E206D6D00496E7465726661636503
:101B600000E698AF00E590A6005072696E7420738D
:101B700074617274696E6700536F756E64730042AE
:101B80006F6F742073637265656E00536372656571
:101B90006E206C6F636B00536F756E6420766F6C94
:101BA000756D65005072696E74206572726F720097
:101BB0005072696E742066696E697368656400436B
:101BC0006C69636B20736F756E647300444502002B
:101BD000444302004445230000000C004443040039
:101BE0004441040044400400443E0400443D1000CD
:101BF000443E200000002A0044390200443702001D
:101C0000443923000000090044340800443508002A
:101C10004431100044321B0000002A00442D020011
:101C2000442B0200442D230000000C00442B040030
:101C300044290400442804004426040044251000DC
:101C400044262000000034004431090044340900D7
:101C500044370900443A0900443D09004440090062
:101C6000443E140000001E00443D0400443E0200B7
:101C700044400200443D0200443E02004440020051
:101C8000443D0200443E020044400200443D020044
:101C9000443E040044400400444102004443020026
:101CA0004440020044410200444302004440020018
:101CB0004441020044430200444002004441040005
:101CC00044430400444502004446020044430200E9
:101CD00044450200444602004443020044450200D9
:101CE000444602004443020044450400000024002E
:101CF00044490400444A0200444C020044490200A2
:101D0000444A0200444C020044490200444A020092
:101D1000444C020044490200444A0400444C04007C
:101D2000444D0200444F0200444C0200444D020066
:101D3000444F0200444C0200444D0200444F020054
:101D4000444C0200444D0400444F0400445102003E
:101D500044520200444F0200445102004452020027
:101D6000444F02004451020044520200444F02001A
:101D7000445104000000200044510400444F02007C
:101D800044520200444C0200444F020044520200FC
:101D9000444C0200444D020044510200444A0200F7
:101DA000444D0200444F0200444A0200444C0200E9
:101DB0004451020044480200444C020044510200D5
:101DC00044480200444A0200444D020044460200D6
:101DD000444A0200444C02004446020044480200C7
:101DE000444C020000FF000046370400463904005E
:101DF000463B0400463E030000000100463C030051
:101E000000000100463C04004640030000000100C1
:101E1000463E020000000200463E04004643030026
:101E2000000001004642040046430400463E020012
:101E300000000200463B030000000100463704009A
:101E40004639020000000200463B0200000002008A
:101E5000463C0400463E02000000020046400200EC
:101E600000000200463E0400463C02000000020062
:101E7000463B02000000020046390400463B0200D7
:101E8000000002004637020000000200463708004A
:101E900000FF000000000800533C0800553C08000B
:101EA000543C0800523C080000000800533C080065
:101EB000553C0800543C0800523C08000000080053
:101EC000533C0800553C0800543C0800523C0800B4
:101ED00000FF0000083C400000FF0000073C4000FD
:101EE00000FF0000063C400000FF0000053C4000F1
:101EF00000FF000041410300414303004141030052
:101F0000413E0300413A0300000003004541030045
:101F10004543030045410300453E0300453A0300A5
:101F200000000300422E0600422E0600422E04004E
:101F3000422E0600422E060000FF00004737050033
:101F400047400500473C050000FF000045390400FC
:101F5000000001004539020000000100453902007F
:101F60000000010045400A0000FF0000DA02532192
:101F7000E2024321EA023C1FF1024C1FF902DE2774
:101F80000603F41E0F03EC1E1703E41E1D03DC1EE4
:101F90002403D41E2D03941E3303E81D3C03CC1BE5
:101FA000446973706C61790041726520796F7520A6
:101FB0007375726520796F752077616E7420746F08
:101FC0002063616E63656C20746865207072696E51
:101FD000743F00E5B7B2E58F96E6B688E68993E5EB
:101FE0008DB0005374617274207072696E74696E82
:101FF000672025733F00536574204D6178696D75C6
:102000006D0052657472616374696F6E0054726121
:1020100076656C005072696E74696E670043616C1E
:1020200069627261746500546F75636820536372EE
:1020300065656E0056204F66667365740048204FD4
:10204000666673657400E8BDAFE68CA1E59D9700F8
:102050007A5F70726F62650052756E6F75742032B0
:102060000052756E6F75742031007A5F6D61780073
:10207000795F6D617800785F6D617800E8BF94E505
:102080009B9E00E5A496E5A3B3E781AF005072697B
:102090006E7420537065656400E68EA2E992885ADA
:1020A000E5818FE7A7BB00E69699E4B89D00E69B23
:1020B000B4E68DA2E4B89DE696990069646C65006B
:1020C0002043002533642553202F20255300E9A306
:1020D0008EE68987E9809FE78E8700E596B7E598C9
:1020E000B400E9998DE6B8A90052656C6561736525
:1020F00020746F20626567696E2073637265656E18
:102100002063616C6962726174696F6E00546F75EF
:1021100063682074686520646F747320746F206333
:10212000616C69627261746500E5819CE6ADA2E64E
:102130008993E58DB000E69A82E5819CE68993E576
:102140008DB000433C0100434001004343100000B8
:10215000FF000000FF0000E58AA0E9809FE5BAA625
:10216000006D6D2F735E3200E7A7BBE58AA8E8BD5E
:10217000B4004D38340047323800E69C80E5A4A70F
:10218000E68993E58DB0E58AA0E9809FE5BAA6458A
:1021900000416D6178205A00416D617820590041FD
:1021A0006D6178205800E69C80E5A4A7E8BF9BE617
:1021B0009699E9809FE78E874500566D6178205A91
:1021C00000566D6178205900566D61782058006D79
:1021D0006D2F7300416C6C00486F6D65004732389D
:1021E000205A004732382059004732382058002002
:1021F0004D393220580020496E76616C6964206543
:102200007874727564657220004361703A0052659B
:1022100073656E643A2000504944204175746F74B0
:10222000756E65206661696C656421204261642079
:102230006578747275646572206E756D6265720A78
:102240000023646566696E652044454641554C54DB
:102250005F00504944E8B083E695B4E5AE8CE6886B
:102260009000E887AAE58AA8E8B083E5A4B1E8B4BD
:10227000A52120E8B685E697B600E887AAE58AA8F2
:10228000E8B083E5A4B1E8B4A52E20E6B8A9E5BA84
:10229000A6E5A4AAE9AB9800E887AAE58AA8E8B071
:1022A00083E5A4B1E8B4A52E20E59D8FE79A84E6E6
:1022B0008CA4E587BAE69CBA004B6420004B6920E9
:1022C000004B702000504944204175746F74756E46
:1022D000652066696E697368656421205075742095
:1022E000746865206C617374204B702C204B6920DE
:1022F000616E64204B6420636F6E7374616E7473DF
:102300002066726F6D2062656C6F7720696E746FE6
:1023100020436F6E66696775726174696F6E2E68AF
:102320000A00504944204175746F74756E652066CB
:1023300061696C6564212074696D656F75740A004C
:102340000A20436C617373696320504944200A007A
:10235000204B643A2000204B693A2000204B703A11
:1023600020002054753A2000204B753A2000206D43
:1023700061783A2000206D696E3A200020643A208E
:102380000020626961733A2000504944204175740D
:102390006F74756E652073746172740A00504944DD
:1023A000204175746F74756E65206661696C656433
:1023B000212054656D706572617475726520746F4B
:1023C0006F20686967680A00E887AAE58AA850490B
:1023D00044004D61726C696E206275676669782D84
:1023E000322E302E7800E68993E58DB0E69CBAE770
:1023F000BB9FE8AEA100546869732070726F67726A
:10240000616D206973206672656520736F667477ED
:102410006172653A20796F752063616E2072656420
:1024200069737472696275746520697420616E6481
:102430002F6F72206D6F6469667920697420756EE4
:1024400064657220746865207465726D73206F66B0
:102450002074686520474E552047656E6572616C33
:10246000205075626C6963204C6963656E736520EA
:102470006173207075626C6973686564206279208D
:10248000746865204672656520536F667477617263
:102490006520466F756E646174696F6E2C20656986
:1024A000746865722076657273696F6E2033206F71
:1024B0006620746865204C6963656E73652C206FB7
:1024C000722028617420796F7572206F7074696F43
:1024D0006E2920616E79206C617465722076657258
:1024E00073696F6E2E0A0A546F20766965772061D2
:1024F00020636F7079206F662074686520474E55A1
:102500002047656E6572616C205075626C6963204E
:102510004C6963656E73652C20676F20746F20743F
:10252000686520666F6C6C6F77696E67206C6F638F
:102530006174696F6E3A2068747470733A2F2F77E4
:1025400077772E676E752E6F72672F6C6963656E75
:102550007365732E00436F6C6F7220546F756368E0
:102560002050616E656C0068747470733A2F2F6D23
:1025700061726C696E66772E6F726700E59B9EE5EF
:10258000B7AE00E681A2E5A48DE5AE89E585A8E5B4
:1025900080BC00E5B7A5E585B7E5818FE7A7BBE976
:1025A000878F00E697A0E6849FE59B9EE99BB60097
:1025B000E9A9B1E58AA8E794B5E6B5810020746F72
:1025C0006F206C6F6E6720657874727573696F6EBB
:1025D0002070726576656E7465640A0020636F6CA6
:1025E0006420657874727573696F6E207072657699
:1025F000656E7465640A00DB0FC93F45BCDA3F8F26
:10260000B30240FCF0274056946140FE4B9B40844F
:10261000A5D840E0231841346A5641E859974164EF
:10262000DBD5416E271742B4B75542CE1A9742C840
:10263000AED542B5885A43D40684BFA65FA7BF74FF
:1026400043E0BF10B11AC01C2C58C0E8F697C0B8C0
:1026500049D6C04E4E17C124D355C1802497C1A07E
:10266000B5D5C1121A17C244AE55C2781797C26CBD
:10267000ACD5C267885AC37A5F6D696E00795F6DA9
:10268000696E00785F6D696E006F70656E00545200
:1026900049474745524544005265706F7274696EF0
:1026A0006720656E6473746F7020737461747573E2
:1026B0000A00E5BD92E58E9FE4BD8DE5A4B1E8B4C6
:1026C000A5005761726E696E673A20486F6D696E3A
:1026D000672042756D702044697669736F72203C83
:1026E00020310A000202040000A0400000A04000C7
:1026F000000040506C6561736520776169742E2E0F
:102700002E00253364202F20253364255300E68EC8
:10271000A5E782B9E5B7AE00456E746572205061D9
:102720007373636F64653A0053656C65637420501E
:10273000617373636F64653A0050617373636F64B0
:1027400065206163636570746564210057726F6E04
:10275000672070617373636F646521007A786376B4
:10276000626E6D213F3C006173646667686A6B6CE2
:10277000200071776572747975696F70003132333A
:102780003435363738393000E585B3E4BA8EE6891A
:1027900093E58DB0E69CBA004C6576656C696E6712
:1027A00000E9AB98E7BAA7E8AEBEE7BDAE00E585A5
:1027B000B3E997ADE6ADA5E8BF9BE794B5E69CBA53
:1027C00000436C65616E204E6F7A7A6C6500E88715
:1027D000AAE58AA8E59B9EE58E9FE782B900453A67
:1027E0000A0045390A0045380A004537140000FF41
:1027F000000041726520796F7520737572653F2006
:10280000437573746F6D697A6174696F6E73207745
:10281000696C6C206265206C6F73742E0053657454
:1028200074696E677320726573746F726564207467
:102830006F2064656661756C74004D3530320044FC
:102840006F20796F75207769736820746F207361CA
:1028500076652074686573652073657474696E6746
:10286000732061732064656661756C74733F0053F7
:10287000657474696E677320736176656421004DB9
:1028800035303000202F0020403A002020506C616D
:102890006E6E657242756666657242797465733AEA
:1028A00020002046726565204D656D6F72793A2073
:1028B00000436F6D70696C65643A20536570203217
:1028C0003620323032300A00204C6173742055704B
:1028D00064617465643A20323032302D30392D32E3
:1028E00034207C20417574686F723A20286E6F6EB8
:1028F000652C2064656661756C7420636F6E666913
:1029000067290A006275676669782D322E302E7845
:102910000A00E9A9ACE69E970020536F66747761C0
:1029200072652052657365740A002057617463688C
:10293000646F672052657365740A002042726F7776
:102940006E206F75742052657365740A0020457897
:102950007465726E616C2052657365740A00506F05
:1029600077657255700A00656E6473746F707320BA
:102970006869743A200070012C0190012701B001B0
:102980002201C0011D01F0011801100213013002E3
:102990000E016002090190020401C002FF00000361
:1029A000FA004003F5008003F000D003EB002004A0
:1029B000E6007004E100E004DC004005D700C0053B
:1029C000D2004006CD00D006C8008007C300300802
:1029D000BE00F008B900C009B400B00AAF00B00BE7
:1029E000AA00D00CA500000EA000500F9B00C01044
:1029F00096005012910000148C00C0158700B0178B
:102A00008200B0197D00D01B7800001E73004020AA
:102A10006E0090226900F024640040275F00902936
:102A20005A00E02B5500102E500020304B00103281
:102A30004600E033410090353C00103737007038D5
:102A40003200A0392D00B03A2800A03B2300603CA2
:102A50001E00103D1900903D1400103E0F00703E06
:102A60000A00C03E0500003F0000403FFBFF803FE2
:102A7000F6FFC03FF1FF2B002D00496E6372656DBC
:102A8000656E740031303000302E31002E30310050
:102A90002E30303100252D3364202525004361631D
:102AA00068656453637265656E3A3A73746F7265F4
:102AB0004261636B67726F756E6428292066616975
:102AC0006C65643A206E6F7420656E6F7567682060
:102AD000444C2063616368652073706163650A001C
:102AE000E8BDB4E6ADA5E695B02F6D6D00202530AC
:102AF0003264203A2025303264004D656E75004DF9
:102B00006564696100474658204D454D2046554C47
:102B10004C0073742F6D6D00FFFFFFFFFFFFFFFF81
:102B2000F800001FF003F80FE007F007C00FE00304
:102B3000C01FE003C01FE003C00FE003C007E003B5
:102B4000C003C003D00000C3D803C1E3DFC7E3F371
:102B5000DFEFF7FBDFEFF7FBDFEFF7FBDFEFF7FB75
:102B6000CFC7E3FBC783C01BC300000BC003C00378
:102B7000C007E003C007F003C007F803C007F8036D
:102B8000C007F003E00FE007F01FC00FF800001FC0
:102B9000FFFFFFFFFFFFFFFF018181800181818037
:102BA00000C0C0C000C0C0C0006060600060606065
:102BB00000C0C0C000C0C0C001818180018181808F
:102BC00003030300030303000606060006060600CF
:102BD00003030300030303000181818001818180DD
:102BE00000000000FFFFFFFFFFFFFFFFC00000032A
:102BF000FFFFFFFF3FFFFC7FFFFEC00003C000039D
:102C0000C00003C000037FFFFE3FFFFC3FFFFC7FCF
:102C1000FFFEC00003C00003C00003C000037FFF2D
:102C2000FE7FFFFE07FFE003FFC001818000C300BD
:102C3000006600003C00003C00007FFFFFFFFC003E
:102C4000007FFFFFFFFF00006000000003800060C6
:102C500000000000C0FFE000000000C0FFE0000036
:102C60000000C0C06000000000C0C06000000000A4
:102C7000C0C06000000000C0C06000000000C0C014
:102C80006000000000C0C06000000000C0C0600024
:102C9000000000C0C06000000000C0FFE0000000B5
:102CA00000C0FFE000000000C0006000000000C0A5
:102CB00000600000000380007FFFFFFFFF00007F37
:102CC000FFFFFFFC0000002100240027002A002D48
:102CD000003000330001010000040107010A010077
:102CE000002200250028002B002E003100340002B5
:102CF000010000050108010B01000020002300264F
:102D00000029002C002F0032000001000003010602
:102D10000109010505050507050808080802020262
:102D2000020A0A0808040404040101010101010166
:102D3000010303030303030303040707070C0C0C3D
:102D40000C0C0C0C0C020202020606060606060615
:102D5000060B0B0B0B0B0B0B0B07070A0A0A0A0AD5
:102D60000A050505040404080801021020200808CB
:102D700010204010204080020102010804020101DD
:102D800002040810204080804020100804020180C6
:102D9000040201804020100804020108040201011D
:102DA0000204081020408001020408102040801016
:102DB0000804088010204004408010204004800057
:102DC000000A0B02090C0D0E0807030401000000A5
:102DD00000000000000000000000000000000000F3
:102DE00000000000000000000000001211100000B0
:102DF00000000000000000000000000000000000D3
:102E000000000000000000000000000000000000C2
:102E10000000000000446F6E6520706C6179696E7F
:102E20006720766964656F0A0020436F756E7420B1
:102E3000583A00453100626564002C207379737440
:102E4000656D2073746F70706564212048656174CE
:102E500065725F49443A2000E6B8A9E68EA7E5A46A
:102E6000B1E68EA700546865726D616C2052756E74
:102E70006177617900E58AA0E783ADE5A4B1E8B4A4
:102E8000A50048656174696E67206661696C656458
:102E900000202D20496E76616C696420657874721B
:102EA00075646572206E756D62657220210A00E995
:102EB0009499E8AFAFEFBC9AE69C80E9AB98E6B88E
:102EC000A9E5BAA6004D415854454D502074726989
:102ED00067676572656400E99499E8AFAFEFBC9AE3
:102EE000E69C80E4BD8EE6B8A9E5BAA6004D494E41
:102EF00054454D502074726967676572656400546B
:102F0000696D656F7574206F6E20444C5F4361631B
:102F100068653A3A576169745F556E74696C5F49C8
:102F2000646C6528290A003344205072696E746508
:102F300072E5B7B2E5B0B1E7BBAA2E00E68993E52A
:102F40008DB0E4B8AD2E2E2E00E69AABE5819CE65E
:102F50008993E58DB0004520255300220A00556E67
:102F60006B6E6F776E20636F6D6D616E643A2022B9
:102F70000020453A00205A3A0020593A005C9C371C
:102F8000435D9C23415659C03F569C5A9C589C5CBB
:102F90009C3B5E5D9CC55DC45DD05D569C5A9C5853
:102FA0009CC6A983AA5D9CE3AD1DA054AB569C5A58
:102FB0009C5BAA5C9C37435D9CD342C69F9496560B
:102FC0009C5A9C14665C9C37435D9CD3426F9F7DEA
:102FD00061569C5A9C1F605C9C37435D9CD3421891
:102FE0009F1A72569C5A9CA0705C9C4C435D9C84BA
:102FF00057C09E1A40569C5A9C97575C9C4C435D08
:103000009C8457C09E835A569C5A9CA1575C9C37FF
:10301000435D9C84575659D2A0569C5A9CEDA05CA7
:103020009C37435D9C84575659CBA0569C5A9CD9DB
:10303000A05C9C37435D9C84575659C15B569C5A93
:103040009C855A5C9C37435D9C84575659F35B566C
:103050009C5A9C985A5C9C37435D9CE690689EE520
:1030600090569C5A9C97575C9CD8705D9CD3425656
:10307000598874569C5A9CD0705C9C3A655D9C1132
:10308000A174A04366569C6764F93F5C9C41435D14
:103090009CD342119E51AD569CC7A9F93F5C9C41FF
:1030A000435D9CD342BA9D745C569CD051F93F5C01
:1030B0009C41435D9CD342639DCD67569CD563F98B
:1030C0003F5C9C41435D9CD3420C9D5F68569C5085
:1030D00065F93F5C9C41435D9CD342B59C305D5695
:1030E0009C0A5AF93F5C9C41435D9CD3425E9CCD57
:1030F0009B569C819AF93F5C9C41435D9CD3426600
:10310000914263569C9F60F93F5C9C463F453FF669
:10311000C0A75A4E37EEC0B2C01DC12751BA515D8B
:103120009C1C5728515E559A545A9C7F515C9C0DAB
:103130009B5D9C1B9C82988052579B5A9CDC9A5C9E
:103140009C759A5D9CD3422B983199569C5A9CD978
:10315000985C9C5459FE5AA25D5659AE57569C5ADB
:103160009C86575C9C44655D9CD3425659D46356FB
:103170009C5A9C589C5C9C41435D9CD3420F91BDE2
:103180005C569C9359F93F0063C111241FBECFEFD9
:10319000D1E2DEBFCDBF00E00CBF13E0A0E0B2E0A3
:1031A000ECE9FBEA01E00BBF02C007900D92AE34E0
:1031B000B107D9F72DE0AEE4B3E001C01D92A93408
:1031C000B207E1F718E1C5ECD8E100E006C02197AD
:1031D0000109802FFE010E940FD2C43CD10780E07C
:1031E0000807A9F70E94CCC10C94CCD50C94000020
:1031F0002F923F924F925F926F927F928F929F9207
:10320000AF92BF92CF92DF92EF92FF920F931F93F4
:10321000CF93DF93CDB7DEB7C055D1090FB6F89481
:10322000DEBF0FBECDBF2091A6032F962FAF2F97E5
:1032300021E02093A6038091A5038D3409F46DC28B
:10324000843511F40C94CB26873411F00C94F026BD
:103250002090A3033090A40334E02316310409F432
:1032600095C154F437FC55C28091A10352E0251654
:1032700031040CF0FFC02FC08AE52816310409F490
:10328000D3C164F4A5E12A16310411F40C94F2269A
:10329000BCE12B16310409F4B7C13BC2EBE52E1695
:1032A000310409F4C5C1FCE52F16310409F031C21F
:1032B0004AE4242E42E0342E5EE7E52E53E0F52E5C
:1032C000A7E2BDE0BB8FAA8F67E3C62E6DE0D62EC6
:1032D00000E010E0EEC1813011F00C94F2260E9463
:1032E000116B81E993E00E94DD8D8091630A83FD7B
:1032F00085C02091330D3091340D4091350D5091A2
:10330000360D60919D0370919E0380919F03909173
:10331000A0030E944CCB882309F470C08091B905AA
:1033200081111BC06091BE057091BF058091C005E1
:103330009091C1050E949DD320912F0230913002BF
:10334000215031096217730744F40E9475308CEDE7
:1033500095E20E944F3011E001C010E02091330D42
:103360003091340D4091350D5091360D60919D0393
:1033700070919E0380919F039091A0030E9430D290
:103380006B017C0120E030E0A9010E9491D487FF0D
:1033900004C0F7FAF094F7F8F09420912B023091E2
:1033A0002C0240912D0250912E02C701B6010E94BD
:1033B000B2CB20E030E048E453E40E9491D41816E8
:1033C0003CF40E9475308DEB95E20E944F3002C0B4
:1033D0001123A1F080919D0390919E03A0919F03E2
:1033E000B091A0038093330D9093340DA093350DCD
:1033F000B093360D8DE993E00E94F68A2AE037ED0E
:1034000043E25CE3609123027091240280912502E3
:10341000909126020E94B2CB6B017C016091210247
:1034200070912202072E000C880B990B0E9453CB3F
:103430009B01AC01C701B6010E94B2CB69837A83BC
:103440008B839C838E010F5F1F4F2DE933E049E989
:1034500053E065E973E081E993E00E94238780E10E
:10346000E1E9F3E0A7E2BDE001900D928A95E1F772
:103470000C94F226813011F00C94F2260E94116B0C
:1034800082E50E945D2F882309F44EC00E94DD2E44
:103490006B017C0120E030E0A9010E944CCB882325
:1034A00011F40C94C6272091270D3091280D4091DE
:1034B000290D50912A0D2A8F3B8F4C8F5D8F809163
:1034C0002B0D90912C0DA0912D0DB0912E0D8E8F66
:1034D0009F8FA8A3B9A38090910390909203A0908E
:1034E0009303B0909403409095035090960360909E
:1034F000970370909803A50194016A8D7B8D8C8D44
:103500009D8D0E944CCB81110C940727A301920141
:103510006E8D7F8D88A199A10E944CCB882311F4D8
:103520000C94C6270C94072789E40E945D2F8823FA
:1035300029F00E94DD2E6B017C0103C0C12CD12C2F
:1035400076018AE40E945D2F882311F40C94CD2724
:103550000E94DD2E6AA37BA38CA39DA320E030E014
:10356000A901C701B6010E944CCB81110C94DA2746
:1035700020E030E0A9016AA17BA18CA19DA10E945D
:103580004CCB81110C94DA270C94C62780E50E945D
:103590005D2F882329F00E94116C6B017C0103C010
:1035A000C12CD12C760183E50E945D2F882361F028
:1035B0000E94DD2E20E030E04AE754E40E94B2CBC6
:1035C0000E94A4D36B017C010E941B888091E20CB5
:1035D000811105C060E082E79BE00E94E05F0E94ED
:1035E00056A1C60ED71EE81EF91E0E9456A1DC0188
:1035F000CB018C199D09AE09BF09B7FD02C00C941F
:10360000F2260E94E632F1CF80918C0387708730DA
:1036100011F00C947A2B60E08FE40E946E6C8111A3
:103620000C94F2260C947A2B1092A2030C94F2269E
:103630008FE08093A2030C94F2260E94DD2E2B01D2
:103640003C01133049F0D6012D913D914D915C9193
:103650000E9430D22B013C01EA8DFB8D208131810B
:1036600042815381C301B2010E9430D24B015C01FF
:103670002DEB37E346E855EB0E9491D487FD21C03E
:103680002DEB37E346E855E3C501B4010E944CCB6E
:103690001816BCF01F5FF4E0EF0EF11C2A8D3B8D75
:1036A0002C5F3F4F3B8F2A8F34E0C30ED11C143068
:1036B00031F1F10181911F010E945D2F882351F3A7
:1036C000BCCF133051F44092330D5092340D6092C0
:1036D000350D7092360D01E0DDCFA5019401D701C3
:1036E0006D917D918D919C910E9431D2F701608303
:1036F000718382839383812F0E94BD8DCBCF002362
:1037000021F083E39DE00E94F68A0E94A18F0C9431
:10371000F2260E94CEBF0C94F2268091A3039091D2
:10372000A4038537910509F4F5C60CF0F9C0853579
:10373000910509F43BC6E4F58B34910509F4D6C232
:10374000BCF48131910509F4F6C12CF4029708F418
:1037500091C10C94C8268F31910509F400C28A32B8
:10376000910509F4AAC2429711F00C94C826E8C545
:103770008135910509F4C5C56CF48C34910509F4C3
:10378000B9C28D34910511F00C94C8260E94CA90DC
:103790000C94F2268335910509F4CBC50CF0D0C505
:1037A0008091A2038F7D80618093A2030C94F22606
:1037B0008D36910509F4D8C2B4F48936910509F41F
:1037C000A0C454F48C35910509F413C688369105CC
:1037D00009F4A5C20C94C8268B36910509F4CEC411
:1037E0000CF4A5C431C58037910509F432C554F4F1
:1037F0008E36910509F4CEC48F36910509F4DBC4E9
:103800000C94C8268237910509F47DC60CF42CC5AA
:103810008337910511F00C94C82688EF99E00E9437
:103820004F3060E088EE99E00E94F76A60E083ED37
:1038300099E00E94F76A60E08CEC99E00E94F76AD8
:1038400061E081EC99E00E94F76A61E081EB99E028
:103850000E94F76A60E088EA99E00E94F76A61E0F6
:103860008EE999E00E94F76A60E084E999E00E949D
:10387000F76A60E08DE899E00E94F76A60E085E809
:1038800099E00E94F76A60E087E799E00E94F76A92
:1038900060E089E699E00E94F76A60E08AE599E0D5
:1038A0000E94F76A60E08CE499E00E94F76A60E0A9
:1038B00086E399E00E94F76A60E085E299E00E9461
:1038C000F76A60E086E199E00E94F76A60E08FE0C5
:1038D00099E00E94F76A60E08AEF98E00E94F76A38
:1038E00060E08CEE98E00E94F76A61E089ED98E074
:1038F0000E94F76A60E08CEC98E00E94F76A61E051
:1039000087EC98E00E94F76A60E08AEB98E00E94FA
:10391000F76A60E086EA98E00E94F76A0C94F22663
:103920008D3D910511F40C94B9240CF04EC0893CE6
:10393000910509F48BC63CF58837910509F438C622
:103940006CF48637910509F4F9C58737910511F0B4
:103950000C94C8260E942A900C94F2268B3991056B
:1039600009F4A9C4883C910509F429C68937910551
:1039700011F00C94C82610928B0310928A030E94B7
:1039800046900C94F2268D3C910509F4D8C654F467
:103990008B3C910509F480C68C3C910509F49BC6CB
:1039A0000C94C826833D910509F4F6C68C3D91051B
:1039B00009F4B8C78E3C910511F00C94C82653E564
:1039C000E52E53E0F52E10E0D5C68A3941E0940784
:1039D00009F447C42CF58D32A1E09A0711F40C9438
:1039E000792564F4823E910511F40C940F258C32F4
:1039F000914011F40C945A250C94C8268F32F1E0B2
:103A00009F0711F40C943C2614F40C94F82580398B
:103A1000914011F00C94C8260E941B880C94F22649
:103A2000853F41E0940711F40C94A8269CF48C3A4D
:103A3000A1E09A0711F40C943F26843F914011F0C5
:103A40000C94C8260E94713088E997E00E944F309C
:103A50000C94F226873FE1E09E0711F40C94B12606
:103A600014F40C94AE26873E934011F40C94BA26BD
:103A70000C94C82680E50E945D2F882329F00E94BF
:103A8000116C6B017C0103C0C12CD12C760183E544
:103A90000E945D2F882361F00E94DD2E20E030E03F
:103AA0004AE754E40E94B2CB0E94A4D36B017C018C
:103AB0000E941B8880917C0390917D03009719F0F0
:103AC0000E940A5C0AC061E67BE0CE0101960E947A
:103AD00093CACE0101960E940A5C1091A60383E06E
:103AE0008093A60381E080937B03C114D104E10499
:103AF000F10431F00E9456A1C60ED71EE81EF91E31
:103B000080917B03882311F40C94A82CC114D10458
:103B1000E104F10411F40C94A42C0E9456A1DC01E0
:103B2000CB018C199D09AE09BF09B7FF02C00C94E7
:103B3000A42C0C94A82C8091770384FF02C00C94D1
:103B4000AD2C8091790387FF02C00C94AD2C80913D
:103B50007A03837011F00C94AD2C0C94C42C0E9449
:103B600051907B018C0120E831E541E050E00E945A
:103B70008CD1C9016DE671E00E94E7D14B015C0177
:103B8000C801B70120E13EE040E050E00E948CD146
:103B9000CA01B90128E130E040E050E00E948CD138
:103BA000762E672EC62ED72E3CE3232E312C412CA9
:103BB000512CC801B701A20191010E948CD1F62EAF
:103BC000E72ECA01B901A20191010E948CD1CB015B
:103BD0008E010F5F1F4F8114910499F0EF92FF92B5
:103BE0007F936F936F927F92BF92AF929F928F92CB
:103BF00086E39BE09F938F931F930F930E94E4CAE9
:103C000013C0A114B104B1F0EF92FF927F936F93B0
:103C10006F927F92BF92AF928AE39BE09F938F93C4
:103C20001F930F930E94E4CA0FB6F894DEBF0FBE35
:103C3000CDBF30C0CD2879F0EF92FF927F936F9384
:103C40006F927F928EE39BE09F938F931F930F93CE
:103C50000E94E4CAE9CF892B69F0EF92FF927F932B
:103C60006F9382E49BE09F938F931F930F930E9427
:103C7000E4CADACFEF92FF9286E49BE09F938F93A2
:103C80001F930F930E94E4CA0F900F900F900F9014
:103C90000F900F908091220D811103C0C8010E94E6
:103CA000BE5F0E947530B8018AE49BE00E945E30DE
:103CB0008AE00E9448300C94F2266DE070E080E5C6
:103CC0000E94C36B8C0197FF02C00C94F226E82E71
:103CD00060E089E40E946E6C81110C94CE2C802FE0
:103CE0000E9423308111B8C60C94CE2C0E94A09063
:103CF0000C94F2268091260D813011F00C94F2265E
:103D000082E08093260D0E9456A160937303709306
:103D1000740380937503909376030C94F22680913C
:103D2000630A83FF02C00C94F2260E94356C87FF61
:103D300002C00C94F22683E50E945D2F882381F057
:103D40000E94DD2E0E949DD3CB010E94ACA18091E8
:103D5000C2059091C3058635910514F40C94112D7C
:103D60000E9495870C94F2268091630A83FF02C01B
:103D70000C94F2260E94356C8EAF87FF02C00C9423
:103D8000F22683E50E945D2F8A8F811107C082E5AC
:103D90000E945D2F811102C010E034C00E94DD2E10
:103DA0000E949DD3CB010E94ACA18091C20590914D
:103DB000C3058635910514F40C94172D0E94A0902C
:103DC0006091C2057091C305072E000C880B990BFA
:103DD0000E9453CB6B017C018090BE059090BF0583
:103DE000A090C005B090C105A50194010E9491D496
:103DF000181614F40C94372D4A8D442311F40C94A6
:103E00001D2D11E00E949587112311F40C94F226C8
:103E10005091720361965FAF61971092720381E0D7
:103E2000809320021AA21BA21CA21DA21AAA1BAADE
:103E30001CAA1DAA23961FAE23978CE327968FAF4B
:103E400027979CE12B969FAF2B97A6E46096AFAF88
:103E50006097C12CD12C90E8E92E2FEBF22E1E8E0C
:103E6000B1E0BEAB812C912C54016091C2057091E0
:103E7000C305072E000C880B990B0E9453CB162FFD
:103E8000072F782E692E9601A7010E944CCB88231C
:103E900021F12091BE053091BF054091C0055091A0
:103EA000C105EA8D612F702F872D962DE11107C076
:103EB0000E944CCB881F8827881F8E8F14C00E94B9
:103EC0004CCB87FF0FC080912002882309F413C1D7
:103ED000109220020E94ABBF0EC11C2D0D2D7E2C16
:103EE0006F2C01C01E8E0E9456A16B017C01DC016B
:103EF000CB012AA93BA94CA95DA9821B930BA40B5A
:103F0000B50BB7FD33C0D701C60188519C4FAF4FE9
:103F1000BF4F8AAB9BABACABBDAB8EAD0E94EDA1EE
:103F200083E09BE00E944F3081149104A104B1040E
:103F3000B9F0D501C401805F984DAF4FBF4FBC01B0
:103F4000CD016C197D098E099F0928EE33E040E010
:103F500050E00E948CD1CA01B9010E94103203C006
:103F60008FE30E9448308AE00E9448300E94E63287
:103F70000E9456A160938D0370938E0380938F03EC
:103F8000909390039091BE059EA3A091BF05AAA710
:103F9000B091C005BEA7E091C105EAAF292F3A2F25
:103FA0004B2F5E2F612F702F872D962D0E9430D2C0
:103FB0001B012C0120E030E0A9010E9491D487FF71
:103FC00004C057FA509457F8509481149104A104F6
:103FD000B104E1F420E030E040E85FE3C201B10168
:103FE0000E944CCB87FF1EC0FEA9FF2339F085E05D
:103FF000882E8DE0982EA12CB12C03C0812C912C01
:1040000054018C0C9D1CAE1CBF1C0CC020E030E089
:1040100040E450E4C201B1010E9491D4181614F496
:10402000460157012E8D222309F448C08AA19BA185
:10403000ACA1BDA1892B8A2B8B2B61F0D701C601C6
:104040002AA13BA14CA15DA1821B930BA40BB50B34
:10405000B7FD34C02EA13AA54EA55AAD23966FAD3B
:10406000239727967FAD27972B968FAD2B9760963A
:104070009FAD60970E9430D220E030E040EC5FE3DB
:104080000E944CCB87FD1FCFD701C601805A9541B6
:10409000AF4FBF4F8AA39BA3ACA3BDA39EA1239602
:1040A0009FAF2397AAA52796AFAF2797BEA52B96BC
:1040B000BFAF2B97EAAD6096EFAF6097809120027B
:1040C000882309F400CF81149104A104B10431F4D0
:1040D0001EAAC12ED02EE72CF62CC7CEF0E1CF1AA7
:1040E000F7E2DF0AE108F108C818D908EA08FB0876
:1040F000F7FCEECFE8CE61962FAD61972093720367
:1041000071C60E94356C182F87FD0AC085E997E0BB
:104110000E944F30812F0E94EDA18AE00E9448301A
:104120002F963FAD2F973093A6030C94B32E80E5C6
:104130000E94FEBFF82E42E0481708F453C681E4FF
:104140000E94142F882321F06091A605062F02C03B
:104150000FEF10E083E50E945D2F882349F00E9455
:10416000CD2E8B016F3F710519F010F00FEF10E0AD
:10417000EF2DF0E0EA55FA4F008334C680E50E9447
:10418000FEBF833008F02EC6E82FF0E0EA55FA4F64
:10419000108228C68EE40E945D2F882309F422C66F
:1041A0000E94CD2E60936E0370936F038093700313
:1041B0009093710317C683E50E94142F882329F07A
:1041C00083E50E94FEBF8093630A0E9475308CEFE6
:1041D0009AE00E944F308091630A882369F1B5EA22
:1041E000EB2EBBE0FB2E00E010E020E08091630AA4
:1041F00090E0A0E0B0E0002E04C0B695A79597959A
:1042000087950A94D2F780FF0EC0DD24D394D20E96
:10421000222319F08CE20E944830F7018591949195
:104220000E944F302D2D0F5F1F4F52E0E50EF11C05
:1042300005301105D9F604C088EF9AE00E944F308E
:104240008AE00E944830CEC510927B031092200273
:10425000C9C541E060E070E08AEE9AE00E947930E2
:10426000C1C50E94A42FBEC583E50E945D2F88238F
:1042700071F00E94216C282F30E02D3331051CF4A1
:1042800080931F02AFC58CE380931F02ABC50E94D1
:104290007530C0901F02D12CE12CF12C83EE9AE0F6
:1042A0000E944F304AE0C701B6010E94A3318AE064
:1042B0000E94483097C583E50E945D2F882309F44A
:1042C00091C50E94216C182F90E0CD970CF01CE353
:1042D00010936D030E9456A16B017C01212F30E0E9
:1042E000A8EEB3E00E94D8D1C60ED71EE81EF91E74
:1042F000C0926903D0926A03E0926B03F0926C0360
:1043000071C50E94EAB20E94CA900E942B88109246
:10431000A6051092A7051092A80568EE73E080E04C
:1043200090E00E946A2F60E083ED9AE00E94E05FD7
:1043300059C58091A2038F7E80628093A20352C5EB
:1043400083E50E945D2F8823E9F00E9456A16093C7
:104350008D0370938E0380938F03909390030E943C
:10436000DD2E20E030E04AE754E40E94B2CB0E9408
:10437000A4D360931B0270931C0280931D02909340
:104380001E0230C58091770384FF02C00C943A2D41
:104390008091790387FF02C00C943A2D80917A03B3
:1043A000837011F00C943A2D0C94662D83E50E94D5
:1043B000142F882309F416C50E9456A160938D031B
:1043C00070938E0380938F03909390030E94DD2E51
:1043D00020E030E04AE754E40E94B2CB0E94A4D32C
:1043E00060936403709365038093660390936703FF
:1043F000F9C40E94356C87FDF5C49091770394FD54
:1044000004C09091790397FF0AC0FAE4CF2EF2E03E
:10441000DF2EA4E6EA2EAAE0FA2E10E009C0909161
:104420007A03937091F7682F81E00E94D66BDAC40B
:10443000D6018D916D010E945D2F882309F459C02A
:10444000133009F04FC00E94DD2E4B015C0120E0CB
:1044500030E040EA51E40E944CCB87FF3AC0A5010E
:1044600094016091840A7091850A8091860A9091E6
:10447000870A0E942BD32B013C019B01AC01609168
:10448000940A7091950A8091960A9091970A0E94D9
:10449000B2CB6093940A7093950A8093960A909396
:1044A000970A60919E0570919F058091A00590915B
:1044B000A1050E9451CBA30192010E94B2CB0E94A0
:1044C000A4D360939E0570939F058093A00590935D
:1044D000A1058092840A9092850AA092860AB092E1
:1044E000870A07C00E94DD2EF701648B758B868BCF
:1044F000978B1F5FF4E0EF0EF11C143009F098CF9A
:104500000E942B8C6FC40E9446BF8FE494E00E94EF
:10451000B8B768C480917C0390917D03009759F0EF
:10452000DC012C91222339F02091220D21115AC453
:104530000E94BE5F57C40E94ABBF54C400917C036D
:1045400010917D0394E0F12C40E0915021F1F801AD
:104550008081282F2B7F213421F421812133D9F42C
:1045600007C08035C1F4818180538A3048F013C080
:10457000813421F0853421F441E002C0FF24F3941A
:1045800098012E5F3F4F89012F5F3F4FF8018081D7
:104590008032C9F3DACF41110E947530FF2021F03B
:1045A00082EA98E00E944F30C8010E94C5321AC4C6
:1045B00020938B0320938A030E94469013C40E9489
:1045C000356C182F87FD0EC40091630384E40E94AC
:1045D0005D2F882311F40C94692D0E94DD2E6B0150
:1045E0007C0120E030E0A9010E944CCB882341F1FE
:1045F00024E01202F0011124E15AFC4FC082D18262
:10460000E282F38220E030E0A90160915F037091C3
:10461000600380916103909162030E944CCB8111F1
:104620000CC080E090E0A0EEBFE380935F03909326
:104630006003A0936103B093620301E00C94692DC1
:1046400080E0809363030E943C88CCC30E94356C59
:1046500087FDC8C37AE4E72E72E0F72E04E61AE07D
:10466000E4E7CE2EEAE0DE2ED7018D917D010E9497
:10467000142F882359F00E94DD2E0E94A4D3F80144
:1046800060837183828393830E94D4870C5F1F4F62
:10469000C016D10649F7A6C30E94356C87FDA2C398
:1046A0006AE4E62E62E0F62E04E61AE0D7018D9168
:1046B0007D010E94142F882339F00E94DD2EF8011D
:1046C00064A375A386A397A30C5F1F4FFAE004377A
:1046D0001F0761F787C38091780387FF02C00C949E
:1046E0006F2D809179038E7011F00C946F2D409195
:1046F000980A5091990A60919A0A70919B0A82E9EE
:1047000098E00E94AE3240919C0A50919D0A6091BF
:104710009E0A70919F0A8FE898E00E94AE32409105
:10472000A00A5091A10A6091A20A7091A30A8CE894
:1047300098E00E94AE328AE00E94483053C38091D4
:10474000770381FF02C00C94B52D8091780381FF1F
:1047500002C00C94B52D809179038C7011F00C94EB
:10476000B52D40C31F5FB4E0EB0EF11C133011F404
:104770000C94851B88E5810F0E94142F882391F3E8
:104780000E94DD2ED7016D937D938D939C9313979B
:10479000812F0E94BD8DE6CF4090370D5090380D8F
:1047A0006090390D70903A0D20910302309104020F
:1047B0004091050250910602C301B2010E9431D21C
:1047C0006A8F7B8F8C8F9D8F80903B0D90903C0DDE
:1047D000A0903D0DB0903E0D20910702309108024F
:1047E0004091090250910A02C501B4010E9431D2E0
:1047F0006E8F7F8F88A399A3C0903F0DD090400DFE
:10480000E090410DF090420D20910B0230910C028E
:1048100040910D0250910E02C701B6010E9431D2A3
:104820006AA37BA38CA39DA320910F023091100259
:104830004091110250911202C301B2010E9431D283
:104840002B013C012091130230911402409115027A
:1048500050911602C501B4010E9431D24B015C0196
:1048600020911702309118024091190250911A02BA
:10487000C701B6010E9431D26B017C010E947530E4
:104880008DE598E00E944F3083E50E94142F882325
:1048900021F00E945E6C80930202809102028823C4
:1048A00019F08CE697E002C084EF99E00E944F3047
:1048B00085E598E00E944F304A8D5B8D6C8D7D8D33
:1048C00083EB9AE10E94AE324E8D5F8D68A179A193
:1048D00086EE91E20E94AE324AA15BA16CA17DA15D
:1048E00080EE91E20E94AE3284EA98E00E944F305E
:1048F0008DE498E00E944F30B301A20183EB9AE16E
:104900000E94AE32B501A40186EE91E20E94AE3261
:10491000B701A60180EE91E20E94AE328AE00E94C9
:10492000483060C283E50E945D2F882331F00E94E9
:10493000CD2E709322026093210280917703909193
:104940007803A0917903B0917A03892B8A2B8B2B62
:1049500009F048C2609121027091220289E498E036
:104960000E942C3285E20E9448308AE00E94483042
:1049700039C20E94356CF82E87FD34C283E50E944F
:104980005D2F0F2D0F2C000C110B882369F10E9455
:10499000CD2EF801EE0FFF1FE050FE4F71836083B4
:1049A000000F111F000F111FF801E55DFD4F7F0182
:1049B000072E000C880B990B0E9453CB2AE037ED91
:1049C00043E25CE30E94B2CBF801E15BFC4F208143
:1049D0003181428153810E94B2CBD7016D937D9387
:1049E0008D939C931397FEC10E94753085E40E94BD
:1049F000483080E38F0D0E944830000F111FF801EE
:104A0000E050FE4F6081718181E498E00E942C3279
:104A100085E20E9448308AE00E944830E3C180E588
:104A20000E94142F882309F4DDC160E070E080E566
:104A30000E94C36BF82E6FEF7FEF83E50E94C36B7C
:104A40008C010196039708F0CDC1F7FCCBC18F2DE7
:104A50000E942330882339F00E94713085E19BE069
:104A60000E944F30BFC10E941B8860E08F2D0E94C2
:104A700073B10F3FBFEF1B0731F00130110571F02B
:104A800000E010E00DC08F2D0E941BB131E020E04E
:104A9000892B09F030E0032F122F02C001E010E053
:104AA0008F2D0E941BB18017910709F49BC10E94B2
:104AB000E632F6CF83E50E945D2F882321F00E9425
:104AC000CD2E8B0102C004E011E080E50E945D2F35
:104AD000882349F00E94CD2ECB016938734128F01C
:104AE00088E893E102C088EE93E0B8010E94915FEC
:104AF00079C185E40E94FEBF811173C080E50E94E8
:104B0000142F882351F00E94DD2E6093C505709309
:104B1000C6058093C7059093C80589E40E94142FA9
:104B2000882381F00E94DD2E2CEA35EC47E25EE31B
:104B30000E94B2CB6093C9057093CA058093CB05E0
:104B40009093CC0584E40E94142F882381F00E9466
:104B5000DD2E2CEA35EC47E25EE30E942BD3609316
:104B6000CD057093CE058093CF059093D0050E941C
:104B700075304091C5055091C6056091C70570918B
:104B8000C8058BE298E00E94AE322CEA35EC47E291
:104B90005EE36091C9057091CA058091CB05909143
:104BA000CC050E942BD3AB01BC0187E298E00E94A8
:104BB000AE322CEA35EC47E25EE36091CD057091B0
:104BC000CE058091CF059091D0050E94B2CBAB016C
:104BD000BC0183E298E00E94AE328AE00E94483035
:104BE00001C10E9471308FE298E00E944F30FAC0FC
:104BF00083E50E94142F182F882371F00E94DD2E68
:104C00000E949DD37093300260932F0221E0672BA6
:104C100009F020E02093B90580E50E94142F882335
:104C200059F020912F0230913002232B11F00E9475
:104C30005E6C8093B905D6C01111D4C00E94753046
:104C400080E198E00E944F308091B905882319F0E7
:104C500081E390E202C087EF97E00E944F306091BD
:104C60002F02709130028FEF97E00E942C328BEF71
:104C700097E00E944F30B6C00E94836CB3C0909101
:104C80008C0390FD02C087E001C086E091FD8D7F1E
:104C90009E012F5F3F4F190192FFC0C78B7F11F01C
:104CA0000C94432E09E91BE087E29DE09B8F8A8FDD
:104CB00096E9C92E9BE0D92E7901F801659175918D
:104CC00085919491AA8DBB8D8D909D90AD90BD9056
:104CD000BB8FAA8FA50194010E9430D22B013C0109
:104CE000F701608371838283938320E030E040EAA0
:104CF00051EC0E9491D487FD0AC020E030E040EAE8
:104D000051E4C301B2010E944CCB18162CF4F601F9
:104D1000849118160CF4BAC7D7018D909D90AD9070
:104D2000BD907D0120E030E040EA51ECC501B401C6
:104D30000E9491D487FDB5C720E030E040EA51E4FD
:104D4000C501B4010E944CCB18160CF0BCC7A9C712
:104D50000E94D04D80E00E944C4F44C00E94D04D34
:104D600041C061E083E50E946E6C91E089270E945A
:104D70004C4F38C081E08093A1031092220D60E077
:104D800083E50E946E6C81112DC00E9427692AC0A4
:104D90000E94CEBF27C00091A3031091A4030E94DC
:104DA00056A160938D0370938E0380938F0390932D
:104DB00090030023B9F00E94753084E50E944830CA
:104DC000B8017727072E000C880B990B0E94103230
:104DD00080E20E9448308FE298E00E944F3002C08B
:104DE0000E94CEBFE0914E03F0E0E956FB4F808178
:104DF000882339F085E997E00E944F308AE00E94CD
:104E000048302F96FFAD2F97F093A603ACC711E063
:104E100022E02216310409F010E020E030E0A90180
:104E2000C701B6010E944CCB881F8827881F181322
:104E3000A4C020E030E040E85FE32AA33BA34CA3FA
:104E40005DA32A8D3B8D4C8D5D8DC501B4010E9403
:104E500030D220E030E040E05FE30E94B2CB6A8FC6
:104E60007B8F8C8F9D8F2E8D3F8D48A159A1C301C3
:104E7000B2010E9430D220E030E040E05FE30E94C7
:104E8000B2CB6E8F7F8F88A399A32A8D3B8D4C8DDB
:104E90005D8DCA01B9010E94B2CB4B015C012E8D20
:104EA0003F8D48A159A1CA01B9010E94B2CB9B0113
:104EB000AC01C501B4010E9431D20E942FD54B0133
:104EC0005C019B01AC01C701B6010E9430D22B01ED
:104ED0003C01A5019401C701B6010E9431D29B019A
:104EE000AC01C301B2010E94B2CB6B017C0120E096
:104EF00030E0A9010E9491D487FD07C0C701B60127
:104F00000E942FD52B013C0103C0412C512C3201B2
:104F10006E8D7F8D88A199A19058A50194010E9462
:104F20002BD32AA13BA14CA15DA10E94B2CBA3012E
:104F300092010E94B2CB2A8D3B8D4C8D5D8D0E94DB
:104F400031D26B017C01A50194016A8D7B8D8C8D22
:104F50009D8D0E942BD32AA13BA14CA15DA10E9453
:104F6000B2CBA30192010E94B2CB2E8D3F8D48A1FE
:104F700059A10E9431D20C94AA1A80E090E0A0E8D6
:104F8000BFEB8AA39BA3ACA3BDA35BCF0E947130F0
:104F900080E89BE00E944F3025CF20E030E0A9015F
:104FA000C701B6010E944CCB882381F31AA21BA231
:104FB0001CA21DA2A701960150582A8F3B8F4C8F2F
:104FC0005D8F8AA19BA1ACA1BDA1B0588E8F9F8F90
:104FD000A8A3B9A3CA01B9010E94B2CB4B015C01DD
:104FE0002E8D3F8D48A159A1CA01B9010E94B2CBB3
:104FF0009B01AC01C501B4010E9431D20E942FD5A2
:105000006EAB7FAB88AF99AF2091270D3091280D03
:105010004091290D50912A0D2EA33FA348A759A7CF
:10502000A70196016EA17FA188A599A50E9431D202
:105030006AAF7BAF8CAF9DAF80912B0D90912C0D03
:10504000A0912D0DB0912E0D8AA79BA7ACA7BDA74F
:105050002AA13BA14CA15DA1BC01CD010E9431D28E
:1050600022966CAF7DAF8EAF9FAF229720919103B8
:105070003091920340919303509194032EA73FA740
:1050800048AB59AB2AAD3BAD4CAD5DAD6EA57FA530
:1050900088A999A90E9430D26B017C018091950367
:1050A00090919603A0919703B09198038AAB9BAB24
:1050B000ACABBDAB22962CAD3DAD4EAD5FAD2297F6
:1050C000BC01CD010E9430D24B015C01A7019601C9
:1050D0006A8D7B8D8C8D9D8D0E94B2CB2B013C0106
:1050E000A50194016E8D7F8D88A199A10E94B2CBFC
:1050F0009B01AC01C301B2010E9431D22B013C01E2
:10510000A50194016A8D7B8D8C8D9D8D0E94B2CB03
:105110004B015C01A70196016E8D7F8D88A199A13D
:105120000E94B2CB9B01AC01C501B4010E9430D2F8
:10513000A30192010E94B0D26B017C0120E030E01B
:10514000A9010E944CCB87FF0AC02BED3FE049EC40
:1051500050E4C701B6010E9431D26B017C012BEDF6
:105160003FE049EC50E4C701B6010E942BD320E098
:1051700030E040EC51E40E94B2CB0E940FD30E9479
:10518000A4D38B01672B11F401E010E032E0231669
:10519000310451F42BED3FE049EC50E4C701B60176
:1051A0000E9430D26B017C0120E030E0A901C701F0
:1051B000B6010E944CCB811122C02EA53FA548A963
:1051C00059A96EA17FA188A599A50E944CCB8111F8
:1051D00016C02AA93BA94CA95DA96AA57BA58CA5E7
:1051E0009DA50E944CCB81110AC008E110E0EBEDB7
:1051F000CE2EEFE0DE2EE9ECEE2EE0E4FE2E8091E6
:105200002F0D9091300DA091310DB091320D8AA7E4
:105210009BA7ACA7BDA79C01AD01609199037091BC
:105220009A0380919B0390919C030E9430D22B01A2
:105230003C01A70196016EA97FA988AD99AD0E9496
:10524000B2CB4B015C0120E030E0A901C301B20107
:105250000E944CCB8823C9F0A5019401C501B4017B
:105260000E94B2CB4B015C01A3019201C301B201C8
:105270000E94B2CB9B01AC01C501B4010E9431D2A6
:105280000E942FD54B015C010DC020E030E0A90148
:10529000C501B4010E9491D487FF04C0B7FAB0944D
:1052A000B7F8B0942FE632E143E85AE3C501B40100
:1052B0000E944CCB87FD13C220919D0330919E0329
:1052C00040919F035091A0032AAB3BAB4CAB5DAB2D
:1052D0008091330D9091340DA091350DB091360D24
:1052E0008EA79FA7A8ABB9AB2AE037ED43E25CE3FA
:1052F00060912302709124028091250290912602F0
:105300000E94B2CB6EA37FA388A799A760912102C8
:1053100070912202072E000C880B990B0E9453CB30
:105320009B01AC016EA17FA188A599A50E94B2CB7B
:105330006E8B7F8B888F998FC501B4010E94D3D368
:105340000E94A4D31B016017710708F41801B10172
:1053500080E090E00E9451CB4B015C019B01AC01CD
:10536000C701B6010E942BD36EA37FA388A799A77C
:10537000A5019401C301B2010E942BD32A966CAF00
:105380007DAF8EAF9FAF2A972EA53FA548A959A9FB
:105390006AA97BA98CA99DA90E9430D2A50194017C
:1053A0000E942BD32E966CAF7DAF8EAF9FAF2E9702
:1053B0002EA13FA148A559A5CA01B9010E94B2CBAF
:1053C0006B017C019B01AC016EA17FA188A599A511
:1053D0000E94B2CB20E030E040EC50E40E942BD39E
:1053E0009B01AC016EA17FA188A599A50E9430D236
:1053F0006AAB7BAB8CAB9DAB20E030E040E05FE381
:10540000C701B6010E94B2CB9B01AC0160E070E025
:1054100080E89FE30E9430D26EAB7FAB88AF99AF3C
:105420002AA53BA54CA55DA529873A874B875C87B4
:105430008EA59FA5A8A9B9A98D879E87AF87B88B90
:105440000E9456A19B01AC0128533F4F4F4F5F4F25
:1054500026962CAF3DAF4EAF5FAF26974A8C5B8C44
:105460006C8C7D8C41E050E05BA74AA759E15EA7B8
:105470008AA59BA58215930508F00BC10E94E1B493
:105480000E9456A1DC01CB0126962CAD3DAD4EAD60
:105490005FAD2697821B930BA40BB50BB7FD10C015
:1054A0000E9456A19B01AC0128533F4F4F4F5F4FC5
:1054B00026962CAF3DAF4EAF5FAF26970E94E632E7
:1054C0003EA531503EA73323E9F12E8D3F8D48A1F3
:1054D00059A16EA97FA988AD99AD0E94B2CB6B018D
:1054E0007C019201A3016AA97BA98CA99DA90E94B4
:1054F000B2CBA70196010E9431D27B018C019201AF
:10550000A3016EA97FA988AD99AD0E94B2CB4B01D2
:105510005C012E8D3F8D48A159A16AA97BA98CA958
:105520009DA90E94B2CB9B01AC01C501B4010E94B0
:1055300030D22B013C01C701D8018E8F9F8FA8A3C9
:10554000B9A34FC04AA55BA5BA0180E090E00E94D4
:1055500051CB2EA13FA148A559A50E94B2CB4B012A
:105560005C010E9426D36B017C01C501B4010E943D
:1055700021D54B015C01A70196016A8D7B8D8C8D35
:105580009D8D0E94B2CB2B013C012AA13BA14CA1D5
:105590005DA1C501B4010E94B2CBA30192010E949A
:1055A00031D22B013C01A50194016A8D7B8D8C8D3C
:1055B0009D8D0E94B2CB4B015C012AA13BA14CA165
:1055C0005DA1C701B6010E94B2CB9B01AC01C50130
:1055D000B4010E9430D26E8F7F8F88A399A359E1C6
:1055E0005EA79201A3016AAD7BAD8CAD9DAD0E941B
:1055F00031D269837A838B839C832E8D3F8D48A122
:1056000059A122966CAD7DAD8EAD9FAD22970E94C3
:1056100031D26D837E838F8398872A962CAD3DADE2
:105620004EAD5FAD2A9769857A858B859C850E94F2
:1056300031D269877A878B879C872E962CAD3DADBA
:105640004EAD5FAD2E976D857E858F8598890E94C2
:1056500031D26D877E878F87988BCE0101960E940D
:10566000DD8D8E010A5E1F4F9E01235F3F4FAE010D
:10567000475F5F4FBE016B5F7F4FCE0101960E9477
:105680002387882331F08AA59BA501969BA78AA72B
:10569000EFCE80E1E1E9F3E0DE01119601900D9299
:1056A0008A95E1F7CE0101960E94DD8D8E010A5E9A
:1056B0001F4F9E01235F3F4FAE01475F5F4FBE010B
:1056C0006B5F7F4FCE0101960E94238780E1FE0130
:1056D0003196A7E2BDE001900D928A95E1F70E9414
:1056E00056A160938D0370938E0380938F039093E4
:1056F000900378CB0E941B880E9456A160938D0373
:1057000070938E0380938F03909390038091230274
:1057100090912402A0912502B09126028093A903C2
:105720009093AA03A093AB03B093AC0380912102A2
:10573000909122029093A8038093A70384E690E0BF
:10574000909322028093210281E080938B030E9438
:1057500046908AE50E94142F382E88E50E94142F67
:10576000882E89E50E94142F8812ECC0381411F09D
:10577000D82C06C0DD24D394882483943324339416
:1057800082E50E945D2F882369F00E94DD2E2B01A7
:105790003C0120E030E0A9010E944CCB882309F4B1
:1057A000A1C006C0412C512C70EA672E70E4772E00
:1057B000811003C0DD2009F49FC020E030E0A90182
:1057C000C301B2010E9431D27B018C0190902F0D58
:1057D000C090300DB090310DA090320D292D3C2D90
:1057E0004B2D5A2D0E944CCB4090270D5090280DE8
:1057F0006090290D70902A0D20912B0D30912C0D69
:1058000040912D0D50912E0D2A8F3B8F4C8F5D8F27
:1058100020E030E048E453E487FD8CC2B701C801C2
:105820000E944CCB87FD04C0E12CF12C08E413E46A
:1058300080E090E0A0E8B0E48E8B9F8BA88FB98FBA
:1058400089839A83AB83BC839701A801692D7C2D42
:105850008B2D9A2D0E944CCB87FF0EC0C701D8011B
:1058600080932F0D9093300DA093310DB093320D96
:10587000CE0146960E947E8E4092270D5092280DB2
:105880006092290D70922A0D8A8D9B8DAC8DBD8DF5
:1058900080932B0D90932C0DA0932D0DB0932E0D76
:1058A000CE0101960E947E8E9701A80160912F0D76
:1058B0007091300D8091310D9091320D0E9491D4F4
:1058C000181674F4C701D80180932F0D9093300DF2
:1058D000A093310DB093320DCE0146960E947E8E7C
:1058E0000E941B88882019F080E00E94D08EDD2065
:1058F00019F081E00E94D08E332019F082E00E94DE
:10590000D08E0E948E8E80918A0380938B0380912B
:10591000A9039091AA03A091AB03B091AC0380932B
:10592000230290932402A0932502B0932602809133
:10593000A7039091A80390932202809321020E94D2
:10594000A18F50CAD82E1CCF0E94E6320C94801D25
:1059500010927B031093A60345CA88E50E94142F7A
:1059600081115F9889E50E94142F81118A988AE538
:105970000E94142F81118C9885E40E94142F882393
:1059800009F430CA12982ECA60E087E59BE00E94B5
:10599000E05F5F988A988C98129824CA8DE40E94E0
:1059A0005D2F8823A9F00E94216C813039F020F00E
:1059B000823049F462E003C060E001C061E0802F02
:1059C0000E9473B105C084E29BE00E944F300ACA76
:1059D00083E50E945D2F882309F404CA0E94216C8C
:1059E000F82EFDE2EF1649F02EE2E21649F03CE215
:1059F000E31209C08093A605F5C98093A705F2C9F3
:105A00008093A805EFC961E0802F0E9473B16F2DCC
:105A1000802F0E9444B16F2D70E0802F0E94AFB1A3
:105A2000E1C90E94CA900E94ABBF0C94B01E0E94B4
:105A3000CA900E94ABBF0C94E01EA5019401C7015F
:105A4000B6010E9491D4181694F087E09BE09F93D2
:105A50008F9386E59FE29F938F931F920E9405C0CC
:105A60000F900F900F900F900F900C94011F87E8EC
:105A700097E0EDCF0E941B8888E50E94142F8823B1
:105A800031F05F9A809168038E7F8093680389E587
:105A90000E94142F882331F08A9A809168038D7FA9
:105AA000809368038AE50E94142F882331F08C9A32
:105AB000809168038B7F8093680385E40E94142F94
:105AC000882309F48FC90E948E2F8CC90E942B88CD
:105AD00089C9602F83E50E946E6C0C94212383E5B5
